:020000040800F2
:1000000000C00020A5060008890600088B0600082D
:100010008D0600088F060008910600080000000009
:10002000000000000000000000000000930600082F
:1000300095060008000000009706000899060008D1
:10004000ED060008ED060008ED060008ED060008C4
:10005000ED060008ED060008ED060008ED060008B4
:10006000ED060008ED060008ED060008ED060008A4
:10007000ED060008ED060008ED060008ED06000894
:10008000ED060008ED060008ED060008ED06000884
:10009000ED060008ED060008ED060008ED06000874
:1000A000ED060008ED060008ED060008ED06000864
:1000B000ED060008ED060008ED060008ED06000854
:1000C000ED060008ED060008ED060008ED06000844
:1000D000ED060008ED060008ED060008ED06000834
:1000E000ED060008ED060008ED060008ED06000824
:1000F000ED060008ED060008ED060008ED06000814
:10010000ED060008ED060008ED060008ED06000803
:10011000ED060008ED060008ED060008ED060008F3
:10012000ED060008ED060008ED060008ED060008E3
:1001300000000000000000000000000000000000BF
:1001400000000000000000000000000000000000AF
:10015000000000000000000000000000000000009F
:10016000000000000000000000000000000000008F
:10017000000000000000000000000000000000007F
:10018000000000000000000000000000000000006F
:10019000000000000000000000000000000000005F
:1001A000000000000000000000000000000000004F
:1001B000000000000000000000000000000000003F
:1001C000000000000000000000000000000000002F
:1001D000000000000000000000000000000000001F
:0401E0005FF8E0F1F3
:1001E40010B5054C237833B9044B13B10448AFF36D
:1001F40000800123237010BD3C0400200000000097
:10020400701A000808B5034B1BB103490348AFF348
:10021400008008BD0000000040040020701A00089F
:100224004FF0FF0C1CEAD0521EBF1CEAD15392EAD5
:100234000C0F93EA0C0F6FD01A4480EA010C4002B1
:1002440018BF5FEA41211ED04FF0006343EA50100B
:1002540043EA5111A0FB01310CF00040B1F5000F4D
:100264003EBF490041EAD3715B0040EA010062F1FC
:100274007F02FD2A1DD8B3F1004F40EBC25008BFE6
:1002840020F00100704790F0000F0CF0004C08BF04
:1002940049024CEA502040EA51207F3AC2BFD2F1D1
:1002A400FF0340EAC250704740F400004FF00003DF
:1002B400013A5DDC12F1190FDCBF00F00040704719
:1002C400C2F10002410021FA02F1C2F1200200FA57
:1002D40002FC5FEA310040F1000053EA4C0308BF1E
:1002E40020EADC70704792F0000F00F0004C02BF6F
:1002F400400010F4000F013AF9D040EA0C0093F0EA
:10030400000F01F0004C02BF490011F4000F013B43
:10031400F9D041EA0C018FE70CEAD15392EA0C0FB1
:1003240018BF93EA0C0F0AD030F0004C18BF31F01C
:10033400004CD8D180EA010000F00040704790F0F2
:10034400000F17BF90F0004F084691F0000F91F096
:10035400004F14D092EA0C0F01D142020FD193EA5C
:100364000C0F03D14B0218BF084608D180EA0100E4
:1003740000F0004040F0FE4040F40000704740F0C0
:10038400FE4040F44000704742000ED2B2F1FE4FEE
:100394000BD34FF09E03B3EB126209D44FEA002350
:1003A40043F0004323FA02F070474FF00000704717
:1003B40012F1610F01D1420202D14FF0FF307047B8
:1003C4004FF00000704700BF2DE9F04188B00024D1
:1003D4000494059406940794244B9A6942F01002FD
:1003E4009A619A6902F010020092009A9A6942F0A6
:1003F40020029A619A6902F020020192019A9A6994
:1004040042F004029A619A6902F004020292029A8A
:100414009A6942F008029A619B6903F00803039306
:10042400039BDFF84C802246E021404600F094FE16
:10043400104D2246F821284600F08EFEE023049356
:100444000127059706940326079604A9404600F061
:1004540063FDF823049305970694079604A9284698
:1004640000F05AFD08B0BDE8F08100BF0010024062
:1004740000080140000C014072B6FEE708B50A48C6
:100484000A4B03604FF4E133436000238360C3608D
:1004940003610C2242618361C36101F0D1F900B9A7
:1004A40008BDFFF7E9FF00BF5804002000380140F1
:1004B40000B591B02822002106A801F015FA002306
:1004C40001930293039304930593012206924FF43C
:1004D400803307930A9202220D920E934FF4E01395
:1004E4000F9306A800F054FE80B90F230193022154
:1004F4000291002303934FF480620492059301A8B0
:1005040001F078F820B911B05DF804FBFFF7B4FFEF
:10051400FFF7B2FF00B587B000F068FCFFF7C8FF33
:10052400FFF752FFFFF7AAFF0024ADF81440ADF81F
:100534001640214B1A6804925B68039300F04AFB4F
:100544001F220499059800F0D0F8102601964FF464
:10055400784500954FF6FF7302221621059800F0A6
:10056400CDF94FF4967000F065FC1F2204990598AC
:1005740000F0BBF8019600954FF6FF7304220F4973
:10058400059800F015FA4FF4967000F053FC0194AE
:10059400182300934FF6FF7322460949039800F08D
:1005A40081F94FF4967000F045FC064B8022A0219F
:1005B400059800F05DFAFEE7881A00089A99B1419F
:1005C400901A00089C1A000882B00E4B9A6942F0F7
:1005D40001029A619A6902F001020092009ADA69B2
:1005E40042F08052DA61DB6903F080530193019B8E
:1005F400054A536823F0E06343F00073536002B08C
:10060400704700BF001002400000014010B586B0E2
:10061400002302930393049305930268174B9A42B1
:1006240001D006B010BD03F558439A6942F48042E4
:100634009A619A6902F480420092009A9A6942F09F
:1006440004029A619B6903F004030193019B4FF434
:10065400007302930223039303230593084C02A916
:10066400204600F059FC4FF4806302930023039367
:10067400049302A9204600F04FFCD2E70038014061
:1006840000080140FEE7FEE7FEE7FEE7FEE77047ED
:100694007047704708B500F0BBFB08BD7047000009
:1006A400FFF7FCFF0B480C490C4A002302E0D45826
:1006B400C4500433C4188C42F9D3094A094C0023AA
:1006C40001E013600432A242FBD301F0E9F8FFF722
:1006D40021FF7047000000203C0400204CBF0008AC
:1006E4003C040020A8040020FEE72DE9F04383B079
:1006F400019000911646BDF80490BDF80670BDF84F
:100704000050BDF8028043462A463946484600F068
:100714002FFA08E0304600F00DFA0134A4B2A542E5
:10072400F8D80137BFB2B84501D94C46F7E703B052
:10073400BDE8F08310B582B001900C46BDF804000A
:10074400BDF806100B46024600F012FA204600F0EF
:10075400F1F902B010BD00002DE9F04F87B005900B
:10076400019202939DF840B09DF84480BDF814A016
:100774004FEA5B061BF00E0318BF012303EB1B13A8
:100784000BFB03F303932039CBB20493BDF816108B
:100794000AEB5B0292B20BEB01039BB2013B013A01
:1007A4009BB292B2504600F0E3F94FF000094D4677
:1007B4004FE0049B03EB4303364A02EB830313F835
:1007C400097000241DE0344B049A03EB021313F860
:1007D4000970F6E7049B03EB4303304A02EB03136F
:1007E40013F80970EDE7029800F0A4F90135EDB2B1
:1007F400B5FBF6F306FB135313F0FF0344D00134A7
:10080400E4B2072C21D8B8F1000F08D147FA04F359
:1008140013F0010FE7D0019800F08CF9E6E747FAEE
:1008240004F313F0010F2AD1BDF8143001339BB245
:10083400ADF81430A3EB0A03B342E0D1ADF814A031
:10084400BDF816300133ADF8163009F101091FFA6D
:1008540089F9039B994519D2BBF10C0FA9D0BBF1BF
:10086400100FB0D0BBF1180FB4D0BBF1200F0DD1D5
:100874000B4B049A03EB821313F80970A1E7019957
:100884000598FFF757FFCFE71D46DEE707B0BDE841
:10089400F08F00BF348B0008A88F000898950008DB
:1008A40068A700082DE9F04184B003900C46174670
:1008B4001E469DF828509DF82C800EE0CDF804804B
:1008C400009533463A460398FFF746FFBDF80C00FF
:1008D40000EB5500ADF80C00013421780029EDD16E
:1008E40004B0BDE8F0810246012002E002FB00F002
:1008F40019464B1EDBB20029F8D170472DE9F04FA1
:1009040085B003900F4615469846BDF838B09DF85B
:100914003C904FEA590ABDF80C3002930026344645
:1009240023E09DF8083004FB0A33ADF80C300023B3
:100934000193CDF800905B46424620210398FFF7CF
:100944000BFF10E09DF8083004FB0A33ADF80C30BF
:10095400303100230193CDF800905B464246C9B282
:100964000398FFF7F9FE0134E4B2AC421AD2291B12
:10097400C9B20139C9B20A20FFF7B5FFB7FBF0F0DD
:100984000A49A1FB0031C90801EB8101A0EB410137
:10099400C9B2002ED6D16B1E9C42D3DA0029C0D036
:1009A4000126CFE705B0BDE8F08F00BFCDCCCCCC9D
:1009B4002DE9F04F85B00390084616461F46BDF852
:1009C40038B09DF83C80BDF80C3002934FEA580AC9
:1009D4002549FFF725FCFFF7D7FC1FFA80F900250E
:1009E400444612E09DF8083005FB0A33ADF80C309C
:1009F40008F130010023019300945B463A46C9B2E2
:100A04000398FFF7A9FE0135EDB2AE4229D9711B57
:100A1400C9B20139C9B20A20FFF765FFB9FBF0F08A
:100A24001249A1FB0031C90801EB8101A0EB41018E
:100A34005FFA81F8B31E9D42D4D19DF8082003FBD0
:100A44000A23ADF80C300023019300945B463A4628
:100A54002E210398FFF780FE0135EDB20136F6B280
:100A6400C0E705B0BDE8F08F0000C842CDCCCCCCC7
:100A74002DE9F04782B001908A4690461F46BDF8A2
:100A84000600831842189BB292B2014600F070F837
:100A94004FF000094D4611E06E0017F8150000F004
:100AA40045F80136B85D00F041F801350134A4B2CF
:100AB4004445F1D309F101091FFA89F9D14501D25D
:100AC4000024F5E702B0BDE8F087000038B504461D
:100AD40000224021144800F03FFB00250DE00022D5
:100AE4001021114800F038FB012280210E4800F04B
:100AF40033FB6400E4B20135EDB2072D0DD80022BA
:100B04008021094800F028FB14F0800FE7D001226F
:100B14001021054800F020FBE6E7012240210248AD
:100B240000F01AFB38BD00BF000C014008B5FFF708
:100B3400CDFF08BD10B50446000AFFF7C7FFE0B2B9
:100B4400FFF7C4FF10BD000038B50446074D00226E
:100B54000821284600F000FB2046FFF7B7FF0122DA
:100B64000821284600F0F8FA38BD00BF000C014007
:100B7400F8B507460D4616461C462A20FFF7E4FF43
:100B84003846FFF7D7FF3046FFF7D4FF2B20FFF797
:100B9400DBFF2846FFF7CEFF2046FFF7CBFF2C20D4
:100BA400FFF7D2FFF8BD000010B5094C0022202148
:100BB400204600F0D1FA0A2000F03CF9012220215D
:100BC400204600F0C9FA642000F034F910BD00BFDB
:100BD400000C014008B5FFF7E7FF1120FFF7B4FF51
:100BE400782000F027F9B120FFF7AEFF0220FFF7CD
:100BF4009DFF3520FFF79AFF3620FFF797FFB220BD
:100C0400FFF7A2FF0220FFF791FF3520FFF78EFFC9
:100C14003620FFF78BFFB320FFF796FF0220FFF784
:100C240085FF3520FFF782FF3620FFF77FFF022084
:100C3400FFF77CFF3520FFF779FF3620FFF776FFBB
:100C4400B420FFF781FF0320FFF770FFC020FFF7F8
:100C54007BFFA220FFF76AFF0220FFF767FF8420D3
:100C6400FFF764FFC120FFF76FFFC520FFF75EFFAA
:100C7400C220FFF769FF0D20FFF758FF0020FFF7A0
:100C840055FFC320FFF760FF8D20FFF74FFF2A2099
:100C9400FFF74CFFC420FFF757FF8D20FFF746FFF7
:100CA400EE20FFF743FFC520FFF74EFF0A20FFF7B2
:100CB4003DFF3620FFF748FFA020FFF737FFE02075
:100CC400FFF742FF1220FFF731FF1C20FFF72EFF32
:100CD4001020FFF72BFF1820FFF728FF3320FFF722
:100CE40025FF2C20FFF722FF2520FFF71FFF2820D8
:100CF400FFF71CFF2820FFF719FF2720FFF716FF37
:100D04002F20FFF713FF3C20FFF710FF0020FFF711
:100D14000DFF0320FFF70AFF0320FFF707FF102052
:100D2400FFF704FFE120FFF70FFF1220FFF7FEFE9D
:100D34001C20FFF7FBFE1020FFF7F8FE1820FFF73A
:100D4400F5FE2D20FFF7F2FE2820FFF7EFFE23200B
:100D5400FFF7ECFE2820FFF7E9FE2820FFF7E6FE68
:100D64002620FFF7E3FE2F20FFF7E0FE3B20FFF7EE
:100D7400DDFE0020FFF7DAFE0320FFF7D7FE032095
:100D8400FFF7D4FE1020FFF7D1FE3A20FFF7DCFE78
:100D94000520FFF7CBFE2920FFF7D6FE08BD000093
:100DA40010B504460E4B18784FF47A73B3FBF0F386
:100DB4000C4A1068B0FBF3F000F09AF868B90F2CF5
:100DC40001D901200AE0002221464FF0FF3000F053
:100DD40057F8054B1C60002000E0012010BD00BF47
:100DE40004000020000000200800002008B5074A85
:100DF400136843F010031360032000F02FF80F2052
:100E0400FFF7CEFFFFF7E0FB002008BD0020024003
:100E1400034A1168034B1B780B441360704700BFEF
:100E2400A004002004000020014B1868704700BF94
:100E3400A004002038B50446FFF7F6FF0546B4F1D8
:100E4400FF3F02D0044B1B781C44FFF7EDFF401B0F
:100E5400A042FAD338BD00BF04000020074AD3687B
:100E640023F4E0631B041B0C000200F4E060034362
:100E740043F0BF6343F40033D360704700ED00E0F8
:100E840000B5194BDB68C3F30223C3F1070CBCF1B3
:100E9400040F28BF4FF0040C03F1040EBEF1060F3B
:100EA40018D9033B4FF0FF3E0EFA0CFC21EA0C016B
:100EB40099400EFA03F322EA0303194300280BDBDB
:100EC4000901C9B200F1604000F5614080F80013E7
:100ED4005DF804FB0023E5E700F00F000901C9B247
:100EE400024B1954F4E700BF00ED00E014ED00E0FC
:100EF4000138B0F1807F0BD24FF0E0235861054AEE
:100F0400F02182F823100020986107221A617047AB
:100F14000120704700ED00E070B582B00024A446C3
:100F2400B0E0874DAA4210D007D9864DAA420CD012
:100F340005F58035AA4208D013E0A5F58015AA422C
:100F440003D005F57025AA4207D18A68002A62D029
:100F5400012A5BD04361082403E0A5F58015AA4269
:100F6400F3D0BEF1FF0F58D80646BEF1FF0F56D896
:100F74004FEA8C0233680F25954023EA050304FAEF
:100F840002F2134333604B6813F0805F78D06E4BEA
:100F94009A6942F001029A619B6903F0010301938B
:100FA400019B4FEA9C02951C684B53F825600CF09A
:100FB40003039D000F23AB4026EA0306644B9842CB
:100FC40033D003F58063984200F0988003F5806382
:100FD400984200F0958003F58063984200F0928077
:100FE40003F58063984200F08F8003F58063984294
:100FF40019D006231AE0CC68B3E7CC680434B0E710
:10100400CC680834ADE7CC680C34AAE70361082443
:10101400A7E70024A5E70424A3E7061DA5E7ACF190
:1010240008029200A6E7052300E00023AB40334307
:101034000232464D45F822304B6813F4801F65D0C8
:10104400444A936843EA0E0393604B6813F4001F09
:1010540062D0404AD36843EA0E03D3604B6813F46A
:10106400003F5FD03B4A536843EA0E0353604B682A
:1010740013F4803F5CD0374A136843EA0E031360CD
:101084000CF1010C0A6832FA0CF357D0012303FA6D
:101094000CF302EA030E33EA0202F1D14A68122A7F
:1010A4003FF63FAF122A3FF65CAF01A555F822F098
:1010B4004F0F0008FB0F0008051000081710000868
:1010C400670F0008670F0008670F0008670F000824
:1010D400670F0008670F0008670F0008670F000814
:1010E400670F0008670F0008670F0008670F000804
:1010F400670F0008FF0F00080B100008012395E795
:10110400022393E7032391E704238FE7114A9368AB
:1011140023EA0E03936098E70E4AD36823EA0E038A
:10112400D3609BE70B4A536823EA0E0353609EE7A0
:10113400084A136823EA0E031360A1E702B070BDE6
:101144000000221000003110001002400000014095
:1011540000080140000401400AB10161704709041C
:101164000161704782B0084B1B68084AA2FB032345
:101174005B0A00FB03F3019300BF019B5A1E01921B
:10118400002BF9D102B0704700000020D34D62104B
:10119400002800F0F18170B582B00446036813F0B2
:1011A400010F2CD0994B5B6803F00C03042B1DD06A
:1011B400964B5B6803F00C03082B12D06368B3F5FD
:1011C400803F41D0002B55D103F1804303F5043314
:1011D4001A6822F480321A601A6822F480221A6093
:1011E40037E08A4B5B6813F4803FE7D0874B1B687A
:1011F40013F4003F03D06368002B00F0BF81236821
:1012040013F0020F75D0814B5B6813F00C0F5FD0A5
:101214007E4B5B6803F00C03082B54D02369002B2E
:1012240000F08A807A4B01221A60FFF7FDFD054623
:10123400764B1B6813F0020F75D1FFF7F5FD401BC9
:101244000228F5D903209EE1704A136843F48033E1
:101254001360636843B3FFF7E7FD05466B4B1B68F8
:1012640013F4003FCBD1FFF7DFFD401B6428F5D911
:10127400032088E1B3F5A02F09D0644B1A6822F447
:1012840080321A601A6822F480221A60E1E703F1BE
:101294008043A3F53C331A6842F480221A601A682A
:1012A40042F480321A60D4E7FFF7BEFD0546574B7F
:1012B4001B6813F4003FA2D0FFF7B6FD401B64285F
:1012C400F5D903205FE1514B5B6813F4803FA5D14E
:1012D4004E4B1B6813F0020F03D02369012B40F01F
:1012E4004F814A4A136823F0F803616943EAC10352
:1012F4001360236813F0080F33D0A369002B5CD06C
:10130400434B0122C3F88024FFF78EFD05463F4B73
:101314005B6A13F0020F21D1FFF786FD401B022800
:10132400F5D903202FE1394A136823F0F8036169E2
:1013340043EAC1031360DCE7354B00221A60FFF770
:1013440073FD0546314B1B6813F0020FD1D0FFF734
:101354006BFD401B0228F5D9032014E10120FFF79F
:1013640001FF236813F0040F00F09680274BDB691C
:1013740013F0805F34D1254BDA6942F08052DA6190
:10138400DB6903F080530193019B0125214B1B680A
:1013940013F4807F26D0E368012B3DD0002B53D17A
:1013A40003F1804303F504331A6A22F001021A623E
:1013B4001A6A22F004021A6233E0154B0022C3F8C1
:1013C4008024FFF731FD0546104B5B6A13F0020FD2
:1013D400C7D0FFF729FD401B0228F5D90320D2E02E
:1013E4000025D3E70B4A136843F480731360FFF7B7
:1013F4001BFD0646074B1B6813F4807FCBD1FFF718
:1014040013FD801B6428F5D90320BCE000100240C2
:1014140000004242007000405F4A136A43F0010337
:101424001362E36833B3FFF7FFFC06465A4B1B6AAB
:1014340013F0020F2FD1FFF7F7FC801B41F2883322
:101444009842F3D903209EE0052B09D0524B1A6A27
:1014540022F001021A621A6A22F004021A62E0E718
:101464004D4B1A6A42F004021A621A6A42F00102EF
:101474001A62D6E7FFF7D8FC0646474B1B6A13F0FF
:10148400020F08D0FFF7D0FC801B41F2883398424A
:10149400F3D9032077E0E5B9E369002B72D03E4A23
:1014A400526802F00C02082A56D0022B17D03B4B8C
:1014B40000221A66FFF7B8FC0446374B1B6813F08A
:1014C400007F47D0FFF7B0FC001B0228F5D90320AA
:1014D40059E0314AD36923F08053D361DCE72F4BC1
:1014E40000221A66FFF7A0FC05462B4B1B6813F07D
:1014F400007F06D0FFF798FC401B0228F5D9032093
:1015040041E0236AB3F5803F1AD023494B6823F4A2
:101514007413226A606A024313434B601F4B012217
:101524001A66FFF781FC04461B4B1B6813F0007F0F
:101534000ED1FFF779FC001B0228F5D9032022E025
:10154400154A536823F40033A1680B435360DCE766
:10155400002018E0002016E0012B16D00E4B5B682B
:1015640003F48031226A914211D103F47013626A48
:1015740093420ED1002006E001207047012002E0D2
:10158400012000E0002002B070BD0120FBE7012033
:10159400F9E70120F7E700BF0010024000004242D3
:1015A4000F4B5B6803F00C02082A01D00D4870470A
:1015B400C3F383420C49885C13F4803F0BD0084B7F
:1015C4005B68C3F34043094AD35C064A02FB00F05C
:1015D400B0FBF3F07047064B03FB00F0704700BF0D
:1015E4000010024000127A0028BF000838BF00082B
:1015F40000093D00002800F0A08070B50D460446A7
:10160400524B1B6803F007038B420BD24F4A1368FB
:1016140023F007030B431360136803F007038B42A3
:1016240040F08D80236813F0020F17D013F0040FDD
:1016340004D0474A536843F4E0635360236813F0CB
:10164400080F04D0424A536843F460535360404A3D
:10165400536823F0F003A1680B435360236813F02D
:10166400010F31D06368012B20D0022B25D0384ADA
:10167400126812F0020F64D035494A6822F003025E
:1016840013434B60FFF7D0FB0646314B5B6803F016
:101694000C036268B3EB820F16D0FFF7C5FB801B07
:1016A40041F288339842F0D9032045E0284A126871
:1016B40012F4003FE0D101203EE0254A126812F006
:1016C400007FD9D1012037E0204B1B6803F00703CA
:1016D400AB420AD91D4A136823F007032B43136056
:1016E400136803F00703AB422DD1236813F0040FF2
:1016F40006D0174A536823F4E063E1680B43536050
:10170400236813F0080F07D0114A536823F4605379
:10171400216943EAC1035360FFF742FF0C4B5B6846
:10172400C3F303130B4AD35CD8400B4B18600B4B29
:101734001868FFF735FB002070BD012070470120B9
:10174400FAE70120F8E70120F6E700BF0020024095
:10175400001002401C8B000800000020080000203C
:10176400014B1868704700BF0000002008B5FFF760
:10177400F7FF044B5B68C3F30223034AD35CD840EE
:1017840008BD00BF001002402C8B000808B5FFF70D
:10179400E7FF044B5B68C3F3C223034AD35CD8401E
:1017A40008BD00BF001002402C8B000810B5044691
:1017B4000268136923F44053C1680B4313618368BF
:1017C4000269134342691A430168CB6823F4B05396
:1017D40023F00C031343CB600268536923F4407372
:1017E40081690B4353610268134B9A4220D0FFF77F
:1017F400BDFF024602EB820202EB820263689B0099
:10180400B2FBF3F20D48A0FB02314909642303FB48
:1018140011231B013233A0FB03235B0903F0F00205
:1018240002EB011203F00F03216813448B6010BD17
:10183400FFF7ACFF0246DDE7003801401F85EB519E
:1018440060B310B5044690F8413013B3242384F8F0
:1018540041302268D36823F40053D3602046FFF755
:10186400A5FF2268136923F4904313612268536926
:1018740023F02A0353612268D36843F40053D360EE
:1018840000206064202384F8413084F8423060638F
:1018940010BD80F84030FEF7B9FED7E7012070474D
:1018A40070B50D4E0D4D761BB61006D0002455F8BC
:1018B400043B01349847A642F9D1094E094D00F082
:1018C400D5F8761BB61006D0002455F8043B013435
:1018D4009847A642F9D170BD40BF000840BF000838
:1018E40048BF000840BF0008830730B548D0541EE5
:1018F400002A3FD00346CAB201E0013C3AD303F8C0
:10190400012B9D07F9D1032C2DD9CDB245EA05252C
:101914000F2C45EA054536D9A4F1100222F00F0C2C
:1019240003F1200EE6444FEA121C03F1100242E9CF
:10193400045542E9025510327245F8D10CF1010206
:1019440014F00C0F03EB021204F00F0C13D0ACF1E3
:10195400040323F003030433134442F8045B934267
:10196400FBD10CF003042CB1CAB21C4403F8012BC4
:101974009C42FBD130BD64461346002CF4D1F9E7F8
:1019840003461446BFE71A46A446E0E7024B13B1E8
:10199400024800F005B8704700000000B1190008C3
:1019A400002301461A46184600F01AB838B5084B09
:1019B400084D5B1B9C1007D0043B1D44013C55F8AB
:1019C40004399847002CF9D1BDE8384000F054B8E8
:1019D4004CBF000848BF0008704700BF704700BFF5
:1019E4002DE9F047DFF87CA00646DAF800009846B7
:1019F4000F469146FFF7F0FF1B4B1B68D3F8484195
:101A040024B365681F2D26DC5EB96B1C0235DAF839
:101A14000000636044F82570FFF7E0FF0020BDE894
:101A2400F087012304EB8501C1F88890D4F888215C
:101A3400AB401A43022EC4F88821C1F80881E4D1CE
:101A4400D4F88C211343C4F88C31DEE703F5A67473
:101A5400C3F84841D5E7DAF80000FFF7BFFF4FF0BD
:101A6400FF30DCE7380400203CBF0008F8B500BFB5
:101A7400F8BC08BC9E467047F8B500BFF8BC08BC6B
:041A84009E467047C3
:101A8800A00080003200320068656C6C6F206C63C7
:101A9800640000008BCD8BCD83AD8BCD942FACF241
:101AA800C5B4D616D616D616D615D615CE15CE1555
:101AB800CE15CE15CDF5CDF5CDF5CDF5CDF5CDF5CC
:101AC800CDF5CDF5D5F6CDF5CDF5CDF5CDF5CDF5F5
:101AD800CDF5CDD5CDD5CDD5CDD5CDD5CDD5C5D5D6
:101AE800C5D5C5D5C5D5C5B5C5B5C5B5C5B5C5B5BE
:101AF800C5B5C5B5C5B5C5B5C594C594BD94BD94A2
:101B0800BD93BD93BD93B573B573B552B552B55278
:101B1800AD52AD52AD32AD32B4F2ACB1ACD28C0FE5
:101B28003A0711042166320A19694B304B711A6C55
:101B38008DF9C75EB5DA4926CBAECA88B183B14202
:101B4800B122B0E1B0C2A8E2A12399239964998691
:101B580089EA61481884088418C510C518E510C4B6
:101B680010E4192510E519671147430E9DF9CF7F39
:101B7800D7BFCF5FADF97BF1630D736E7BCF8C1050
:101B8800A4D2B554C595C5B5CDD5CDD5CDD5CDD572
:101B9800C5D5CDD5CDD5CDD6CDB6C595C596C5F7C8
:101BA800CE38D658D658DE78DE78DE56DE35DE35C5
:101BB800DE14DDF3DDD3CD30BCCFA44E838B6AA910
:101BC80049C628C228C310201000390293CCC51179
:101BD800D551BC6D8BCD83AD940EA4B1BD74CDD55C
:101BE800CDF6D616D616D616D615D615D615CE15C2
:101BF800CE15CE15CDF5CDF5CDF5CDF5CDF5CDF58B
:101C0800CDF5CDF5CDF5CDF5CDF5CDF5CDF5CDF5BC
:101C1800CDF5CDD5CDD5CDD5CDD5C5D5C5D5C5D5A4
:101C2800C5D5C5B5C5B5C5B5C5B5C5B5C5B5C5B5BC
:101C3800C5B5C5B4C5B5C595C594BD94BD94BD938A
:101C4800BD93BD73BD73B573B552B552B552B55298
:101C5800AD32AD32A511AD12B4F2ACB1ACD29CB17B
:101C6800632B2985212519068CF7D77FCF7F2AACCE
:101C780074B39D76D5F99B0CB268A963A962A94291
:101C8800A8E1B122A90298C2A144914491248946AD
:101C980081A9720B314718C518C518C5190610E671
:101CA800194729E919672A0A7473CF3EDFBFCF5F46
:101CB800BEFD955673F073AF84109CD3AD34B575E3
:101CC800C5B6C5B6C5B6CDD6CDD6CDF5CDD5CDD54F
:101CD800CDD5CDD5C5B5CDB5CDB5CDB6CDD6CE172F
:101CE800D638D658D658DE78DE57D636D5F5D5D379
:101CF800CDB2CD92C510C510B48E9C0D8B8C628868
:101D0800394328C220A131037B0AC533CD73C511DD
:101D180082E940E08BCD9C4FB512C5B5D636D63793
:101D2800D636D616D616D616D615D615D615D6152F
:101D3800D615CE15CDF5CDF5CDF5CDF5D5F5CDF539
:101D4800CDF5CDF5CDF5CDF5CDF5CDF5CDF5CDF57B
:101D5800CDD5CDD5CDD5CDD5C5D5C5D5C5D5C5D58B
:101D6800C5D5C5B5C5B5C5B5C5B5C5B5C5B5C5B57B
:101D7800C5B4C5B4C594C594BD94BD94BD94BD9374
:101D8800BD73BD73BD73B573B553B532B532B532D6
:101D9800B532B512AD11ACF1ACF2ACD2A4D1AD12E2
:101DA80094705AA918C31905CEFDEFFFE7BF8CB48C
:101DB8002926728AB36CAA47A942B141A942A9420D
:101DC800A122A122A14399448943896481247925C8
:101DD8008A6C6A2C392718A518E6294829891969AF
:101DE8002A0B4B0F5330B63CD75FCF1EC6BCADD8BD
:101DF800951594F484519CD3B575BDB6C5D6C5D692
:101E0800C5D6C5B5CDD6CDD5CDD5CDD5CDB5C5B530
:101E1800C5B5C594C574C574C575C5B5CDD6CDF65B
:101E2800CE17D637D657D637D636D615D5D4CDB35E
:101E3800CD72CD51B48EAC2C9BCC836A6A6741635A
:101E480030C130A06206AC4EC532CD7393AD51E6B9
:101E580028C228E3A490BD53D616D636D616D63651
:101E6800D636D616D616D616D615D615D615D615EE
:101E7800D615D615CDF5CDF5CDF5CDF5CDF5CDF5F8
:101E8800CDF5CDF5CDF5CDF5CDD5CDD5CDF5CDF57A
:101E9800CDD5CDD5CDD5C5D5C5D5C5D5C5D5C5D552
:101EA800C5B5C5B5C5B5C5B5C5B5C5B5C5B4C5B45C
:101EB800C594C594C594BD94BD94BD94BD93BD937C
:101EC800BD73BD73BD53B553B552B532B532B532D6
:101ED800B512B511B511ACF1ACD1ACF2A4D1A4D105
:101EE800A4D18BEE4A0739E8530DD71DC63ABD7603
:101EF8009B4EA2AAA9E5A141B962B161A942A1423A
:101F0800A963A1239123894471037945710471461A
:101F1800828D6A6D310620A531684A8D5B505B71F0
:101F28006C148D38C6FFC6BEBE7CBE7BB5F9AD56F7
:101F3800AD55AD55BDB6C5F6C5F6C5D6C5D6C5B5FC
:101F4800C5B5CDD5CDB5CDB5CDB5CDB5CDB5C5B569
:101F5800C594C594C574BD54BD34BD54C594C5B5A8
:101F6800CDD5CE16D616D5F5CDD4CDB4CD93CD528C
:101F7800C531C510C4F0AC2D832972A859E530C00D
:101F8800496393ACC511D573C4F16A88392328E332
:101F980010820841C5B4D636DE57D636D616D636A0
:101FA800D636D615D616D616D616D615D615D615AD
:101FB800D615D615CDF5CDF5CDF5CDF5CDF5CDF5B7
:101FC800CDF5CDF5CDF5CDD5CDD5CDD5CDF5CDD579
:101FD800CDD5CDD5C5D5C5D5C5B5C5B5C5B5C5B599
:101FE800C5B5C5B5C5B5C5B5C5B5C5B4C594C5945C
:101FF800C594C594C594BD94BD94BD93BD93BD933C
:10200800BD73BD73BD53B553B533B532B532B512D3
:10201800B512B511B511B4F1A4D1ACF2A4D29C900B
:10202800ACD1A4907B4B7BAD21246B6EC596BC7163
:10203800B2AAA9C6B9A4B162B962A921A963A14388
:10204800A1239944894468C2718671A6692669A842
:10205800620B730F522B49EA5ACD7BF29D18A57A71
:10206800A5DBB67DB65DBE7DBE5BBE1ABDF8C5F705
:10207800CDF7C5D5C5D5C5F5C5D5C5D5CDF5CDD50E
:10208800C5B4CDD5CDB4CDB4CDB5CDB5CDB5C5944C
:10209800C574BD74BD54B513B513BD33BD53BD73FD
:1020A800C594CDD4CDD4CDB3C572CD72CD52C4F0C4
:1020B800BCAFB46EA3EC938B8309620551627AA717
:1020C800B48FCD32CD529BCD51A528A128E3104124
:1020D80010830042D636D636D636D656D636D636BB
:1020E800D636D636D616D616D616D616D616D61549
:1020F800D615D615CDF5CDF5CDF5CDF5CDF5CDF576
:10210800CDF5CDF5CDD5CDD5CDD5CDD5CDD5CDD577
:10211800CDD5CDD5C5D5C5B5C5B5C5B5C5B5C5B577
:10212800C5B5C5B4C5B4C5B4C5B4C594C594C5943E
:10213800C594C594BD94BD93BD93BD93BD93BD7324
:10214800BD73BD73B553B553B553B532B532B5127A
:10215800B512B4F1ACD0B511A4D1A4D1A4D2A4B114
:10216800A4B0A48FA48FA49062A951C6D554AACABA
:10217800A9A5B985B122B963B122B163A964A14403
:1021880098E391038985690469C869E961A96A0ABC
:102198005A0B6AEE7B907BB09494A557BE1BBE5C2D
:1021A800BE5CBE5CB63BB63ABDF9BDF8C5F7C5D650
:1021B800C5B5CDD5C5B4CDF5CDF5C5D4CDD5CDD422
:1021C800C594C593C594CD94CD94CDB4C594BD7430
:1021D800BD53B533B513B4F2B4F2B512B512B53276
:1021E800BD52BD52C572C552C532C531C511BCAF4D
:1021F800B44DA3EC9BCC830862056A469BCBCD11FA
:10220800D572C51162064123310320811021106265
:1022180008420842D636D635D636DE56D636D615D4
:10222800D616D656D636D636D616D616D616D616C6
:10223800D616D616D616D616CDF5CDF5CDF5CDF5DE
:10224800CDF5CDF5CDD5CDD5CDD5CDD5CDD5CDD536
:10225800CDD5CDD5C5D5C5B5C5B5C5B5C5B5C5B536
:10226800C5B5C5B4C5B4C5B4C594C594C594C5941D
:10227800BD94BD94BD94BD93BD93BD73BD73BD7333
:10228800B573B573B553B553B533B533B532B51268
:10229800B512B4F1ACD0ACD1ACF1A4B1A4D1A4F1D5
:1022A8009CB09C8F9C6FACD0A42F51439AA9A226B6
:1022B800B1A4B963B183B1A4A963B18498E29103CD
:1022C80099249125818771A9598A5A0C620C622D2B
:1022D80062AE630F9474A515BDF9C63ACE7BC67A73
:1022E800C65AC659BE18C638C5F7C5F6CDF6C5D5FF
:1022F800C594D5F5C5B4CDF4CDD4C5B4C5B4CDB465
:10230800CDB4CDB4CDB4CDB4CDD5CDD5CDD5C5B462
:10231800C594BD74BD73BD53BD53B512B512B4F2A7
:10232800B512B4F1B511B4F1B4D0B4B0B48FB44EA1
:10233800A3EC9B8B82E87AA78B49B46ECD52C53249
:10234800938C49C5310229030820084110820841AD
:1023580000001062D656DE56D636D636D636D63673
:10236800D636D615D636D636D636D616D616D61686
:10237800D616D616D616D616D616CDF5D5F5CDF56B
:10238800CDF5CDF5CDD5CDD5CDD5CDD5CDD5CDD5F5
:10239800CDD5CDD5C5B5C5B5C5B5C5B5C5B5C5B515
:1023A800C5B4C5B4C594C594C594C594C594BD9425
:1023B800BD94BD94BD94BD93BD73BD73BD73BD7312
:1023C800B553B553B553B533B533B532B532AD1290
:1023D800AD12ACF1ACF1A4B0ACF1ACD1A4B0A4D0C6
:1023E8009CB0A4D0A48FACAFB46FA32AA267A1C439
:1023F800B1A3B142B184A163A964990388E391466A
:10240800916691A88A0A69CB51ED5A6F5A8F62CFAB
:102418006B0F9474B597BDF8CE7AC638C638C6180F
:10242800C617C5F6C5F6C5F6CE16C5D5C5D4CDF5BD
:10243800CDD4C5B3CDB4CDD4CDD4CDF4D5D4CDB4CD
:10244800CDB4D5D4D5F5D615DE56DE57DE57D636FB
:10245800D636D636D615D615CDD4BD73B532B51207
:10246800B512B4F2B4D1ACB0A44FA40DA3ED9BCC7B
:10247800936A8B097AA79BCBC4F0CD52AC8F628844
:10248800310328E220A2084010611062082110617F
:1024980010820841D636D636D636D636D636D63611
:1024A800D636D636D636D636D616D616D616D61644
:1024B800D616D616D616D616CDF5CDF5CDF5CDF55C
:1024C800CDF5CDF5CDD5CDD5CDD5CDD5CDD5CDD5B4
:1024D800CDD5CDD5C5B5C5B5C5B5C5B5C5B5C5B4D5
:1024E800C594C594C594C594C594BD94BD94BD9434
:1024F800BD94BD74BD94BD94BD94BD73B553B5531F
:10250800BD73B553B553B532B532B512AD12AD1270
:10251800AD11ACF1A4F1ACF2ACF1ACD1A4B0A4B063
:10252800A4B19C90A4B0AC8FBCAFBBECA266A1E4F4
:10253800A982B1A3B1A4A14490E39124810589A8FB
:1025480081A8926C82AE8B726B115AF16B917BD120
:102558009CB4B597BDF7BDF7C617C617C616CDF616
:10256800CDF5CDF5CDD4CDF4CDF4CDD4C5D4C5D4E9
:10257800C5D4C5D4C5B4CDD4CDF5CDD4CDD4D61518
:10258800D635D635DE76DE56DE56DE56DE56DE77B4
:10259800DE57D656DE76DE56D636D615CDD5C59458
:1025A800B513ACB2AC91AC709C0E93CD938B8B4AA7
:1025B80083098B49BC8EC4F0CD5293CD41A521032C
:1025C80020E30861106110611061106110611061F1
:1025D80010610861D636D636D636D636D636D636D1
:1025E800D636D636D636D636D616D616D616D61603
:1025F800D616D616D616D616CDF5CDF5CDF5CDF51B
:10260800CDF5CDF5CDD5CDD5CDD5CDD5CDD5CDD572
:10261800CDD5CDD5C5B5C5B5C5B5C5B5C5B5C5B493
:10262800C594C594C594C594BD94BD94BD94BD94FA
:10263800BD94BD74BD74BD73BD73BD74C594BD73C5
:10264800BD53BD53BD53BD53B532B532B512AD12EE
:10265800ACF1ACF1A4D1A4D1A4D1ACD0ACD0A4B08D
:10266800A491A4B1A490AC8FBCAFBC4CB328A22455
:10267800A1E4A9E5992391249165A229924A826B44
:10268800828C9B90B494A4957BD37C34A577B5D7E2
:10269800C5F7C5D6C5F7C617C617CE16CDF6CDF5FC
:1026A800CDF5CDF4CDD4CDF4CDF4CDD4CDD4CDF479
:1026B800C5F5C5F5CDF5D5F5D5F5D616D615D63665
:1026C800DE56DE56E677DE76DE76DE76DE77DE7797
:1026D800DE76DE76DE55D655D635D615D5F6CDD688
:1026E800C595BD54ACB2A4719C2F9BEE8B8C834ACC
:1026F8009BECBD10C531A44E624628E2210318C3E5
:10270800002110A208611061106010601060104074
:1027180008610861D636D636D636D636D636D63697
:10272800D636D636D636D616D616D616D616D616E1
:10273800D616D616D616CDF5CDF5CDF5CDF5CDF503
:10274800CDF5CDF5CDD5CDD5CDD5CDD5CDD5CDD531
:10275800CDD5CDD5C5B5C5B5C5B5C5B5C5B5C5B452
:10276800C594C594C594C594BD94BD94BD94BD94B9
:10277800BD74BD74BD94BD74C594BD53C553BD121D
:10278800BD12C532BD32BD12BD11BD11B511B51195
:10279800ACF1ACF1AD12ACF2A4F1A4D0ACD0ACD198
:1027A800AC91A471A470A48FACAEBC8DBC0B9A85FF
:1027B8009A2599E58944896581A7A30DABD1AC73A6
:1027C800BD15D5F8C576C5B7AD56B597BE37C6574A
:1027D800CE57CE16CE16CE17D616D616D616D5F591
:1027E800D5F5D5F5CDF5D5F5D5F5CDF5CDF5CDF5B1
:1027F800CE15D616D616D5F6D616DE36DE56DE56E3
:10280800DE56E696E696DE76E696E696E697DE9657
:10281800DE76DE76D635D634D615D615D616D5F666
:10282800CDF6CDD6CDB6C575B4F2A44F9C2EAC90DE
:10283800BD11BD3293ED418428E2292308400041AF
:1028480010A20881086108611060086008600860CB
:1028580008610861D636D636D636D636D636D63656
:10286800D636D616D616D616D616D616D616D616E0
:10287800D616D616CDF5CDF5CDF5CDF5CDF5CDF5EC
:10288800CDF5CDF5CDD5CDD5CDD5CDD5CDD5CDD5F0
:10289800CDD5CDD5C5B5C5B5C5B5C5B5C5B5C5B411
:1028A800C594C594C594BD94BD94BD94BD94BD9480
:1028B800BD74BD74BD74BD94C594BD32CD73CD7364
:1028C800D573CD32CD52CD32CD32C511C511BD1122
:1028D800BD11B4F1ACD1ACD2ACF1ACF0A4AFAC70DA
:1028E800AC71AC92A491A4B0A48EACADBC8DA3285D
:1028F800924689E681C6926992CBAC10BD15CDD8B7
:10290800CE17CE16CDF6D617CE17CE58CE77CE56D2
:10291800D656D616D636D616D616D616D616D5F511
:10292800D5F5D5F5D615CDF5CDD5CDD5CDF5D6156D
:10293800D615D615D5F5D5F5D615DE36DE36DE36FE
:10294800DE56DE76DE76DE96E696E696E696E6963F
:10295800DE76DE55D634D614D614CDF4CDD4CDD506
:10296800CDD5CDD5CDD6CDD6C595B513B513C573B3
:10297800A4706AC941A5292320C218C218C218C266
:1029880010810860088110610861086008610861A9
:1029980008610861D616D616D616D616D616D616D5
:1029A800D616D616D616D616D616D616D616D616BF
:1029B800D616D616CDF5CDF5CDF5CDF5CDF5CDF5AB
:1029C800CDF5CDF5CDD5CDD5CDD5CDD5CDD5CDD5AF
:1029D800CDD5CDD5C5B5C5B5C5B5C5B5C5B5C5B4D0
:1029E800C594C594C594BD94BD94BD94BD94BD943F
:1029F800BD74BD74BD94BD53BD73C573D5B4D572D4
:102A0800CCF0C48FB40DABCBA38BABCCBC4EC4AF56
:102A1800C4B0BC90BCF2B4B1A4D0AD10ACF1ACB1B0
:102A2800AC91B4B2A491A4B0A4AEACCEB4AEAC0C8C
:102A380092C992C9ABADBCB1C532D5D5D617D65758
:102A4800D656CDF4D615D615D5F6D637D657D6568A
:102A5800D637D616D5F5D615D5F5D5F5CDF5CDD5C8
:102A6800CDD5CDD5CDF5CDD5C594C5B4CDD4CDF581
:102A7800CDD4CDB4CDD4D5F5D615D615D615D635F5
:102A8800DE55DE55DE76DE76E676E696E696E67680
:102A9800DE55DE55D634D614D5F4CDD3CDB3C59393
:102AA800C593C594C5B4C594C595C594BD54ACD259
:102AB80083AD52484A4939C739A639A63165210339
:102AC80018811081108108810881086108610861F6
:102AD80008610840D616D616D616D616D616D616B5
:102AE800D616D616D616D616D616D616D616D6167E
:102AF800CDF5CDF5CDF5CDF5CDF5CDF5CDF5CDF5BE
:102B0800CDF5CDF5CDD5CDD5CDD5CDD5CDD5CDD56D
:102B1800CDD5CDD5C5B5C5B5C5B5C5B5C5B5C5B48E
:102B2800C594C594C594C594BD94BD94BD94BD94F5
:102B3800BD74BD74C5B5BD53C594D5D4CD32BC4E96
:102B4800B3ECBBECB3ABBBECC40CB3CBA34AA3490B
:102B5800AB8BB3EDC490BCD1B511ACF0ACF0ACF11B
:102B6800B4B1A450A490A4D0A4D0ACEFB4CFBCD03E
:102B7800AC0EB44FCD53D5D5D615D635D636D636B8
:102B8800D655DE55D5F3D5F4D5F5D5F5D615D615E4
:102B9800D616D616D5F4D5F4D5F4D5F4CDD4CDD4EF
:102BA800CDB4CDB4CDD4C593C573C593CDD4CDD450
:102BB800C593C572CDB3CDF4D614D5F4CDF4D614DF
:102BC800DE35DE55DE75E675E676E676E676E67699
:102BD800DE55DE35DE15DE14D5F4CDB3CD93C592C2
:102BE800C593C593CDB4C594C594C594BD54A4B23A
:102BF8008BEF7B6E630C5ACC5AEC52AA318610A12B
:102C0800084018A21061088108610861086108413C
:102C180008410840D616D616D616D616D616D61693
:102C2800D616D616D616D616D616D616D616CDF566
:102C3800CDF5CDF5CDF5CDF5CDF5CDF5CDF5CDF57C
:102C4800CDF5CDF5CDD5CDD5CDD5CDD5CDD5CDD52C
:102C5800CDD5CDD5C5B5C5B5C5B5C5B5C5B5C5B44D
:102C6800C594C594C594C594BD94BD94BD94BD94B4
:102C7800BD94BD74BD94BD73CD94D5D4B46FABEC85
:102C8800BBECCC2DCBEBC3CBC3AAC3ABBBABB3ABB9
:102C9800AB4A9B09A32BBC4FC552B531A4D0A4D1D4
:102CA800B4F2B4F2BD33BD52B511B511C532CD730E
:102CB800CD54D5B5DE17DE37DE56DE56DE56E6369F
:102CC800DE15DE35DE55D615CDD5CDD5D635D6347F
:102CD800CE13CDF3D5F4D5F4D5F4CDD4CDD3CDB32F
:102CE800C593C593CDB3C572C572C592CDB3C59210
:102CF800C572BD51CDB2CDD3CDD3CDD3CDF3D5F3A0
:102D0800D614DE34DE55DE55DE55E675E676E67613
:102D1800E655DE35DE15DDF4D5D3CD93CD92CD92D3
:102D2800C592C592BD72C593C5B4C595BD75B53478
:102D3800A4B39C52945194928410528A29662945CE
:102D4800210410A21081106010400840084008417A
:102D580008610862D616D616D616D616D616D61610
:102D6800D616CE16D616D616D616D616CDF5CDF557
:102D7800CDF5CDF5CDF5CDF5CDF5CDF5CDF5CDF53B
:102D8800CDF5CDF5CDD5CDD5CDD5CDD5CDD5CDD5EB
:102D9800CDD5C5D5C5B5C5B5C5B5C5B5C5B5C5B414
:102DA800C594C594C594C594C594BD94BD94BD946B
:102DB800BD94BD74BD94BD74C573CD72ABECB3EC5A
:102DC800BBECC3CBBB69C38ACBCBD40CCC0CC3CB79
:102DD800AB4AA2E99AC99B4BAC6FC593CDD4C593B6
:102DE800CDB5DE57DE77D616C573BD73D5D4CDB451
:102DF800DE36DE37DE37DE57E697DE56E636E6564F
:102E0800DE15E655D615CE15CE15CDF5D5F4CDF390
:102E1800CDD2D633CDF3D5F3CDF3CDD3CDB3C59243
:102E2800C572C572C592C571BD51BD51C571BD711F
:102E3800BD51BD51CDB2C592C592CDB2CDD3CDD382
:102E4800D5F3D614DE34DE34DE34E655E655E655E1
:102E5800E635DE35DE15D5F4D5B3CD92C571C5712D
:102E6800C571C571C592C5B3C593BD73BD74BD5455
:102E7800B534BD55BD95B5558C30528A39E82966AB
:102E880010C310A310811061104008400840084189
:102E980008611082D5F5D5F5CDF5CDF5CE15CE1551
:102EA800CE15CE15CE15CE15CE15CE15CDF5CDF544
:102EB800CDF5CDF5CDF5CDF5CDF5CDF5CDD5CDD53A
:102EC800CDD5CDD5CDF5CDF5CDF5CDD5CDD5C5D592
:102ED800C5D5C5D5C5D5C5D5C5D5C5B5C5B5C5B57A
:102EE800C5B5C5B5C595C594C594BD94BD94BD94E7
:102EF800BD94BD94BD74BD73C573C532A3ACABCBD3
:102F0800B3ABBB8BBB6AC38ACBABCBABC3ABBBABE3
:102F1800BBABB3ABB3CCBC0DB42EB46EBCD0DDF53B
:102F2800E677DE56E697DE77D635CDF4D615DE564B
:102F3800DE56E656E676E697E697E696E676DE56B7
:102F4800DE56DE55DE55D615D5F4D5F4D5F4D5F3D1
:102F5800D5F3D5F3D5F3CDF3CDD3CDB3C592BD71AC
:102F6800BD51C552C551BD51BD10BD30C551BD3152
:102F7800B510BD51C571C551C551C551CD91CDB221
:102F8800D5D3D5F3DE14DE13E654DE34E675E65504
:102F9800DE55DE34DE14D5D3CD72C571C571C57169
:102FA800C572C592C592CD93CD93C573BD53BD323D
:102FB800BD12B513B512B5139C9183AE5ACA39E840
:102FC800296610C310A310A3084108201081188295
:102FD80010411060CDF5CDF5CDF5CDF5CDF5CDF59C
:102FE800CE15CE15CE15CE15CDF5CDF5CDF5CDF545
:102FF800CDF5CDF5CDF5CDF5CDF5CDF5CDD5CDD5F9
:10300800CDD5CDD5CDF5CDF5CDD5CDF5CDD5C5D550
:10301800C5D5C5D5C5D5C5D5C5D5C5B5C5B5C5B538
:10302800C5B5C5B5C594C594BD94BD94BD94BD94AE
:10303800BD94BD94BD74C574BD32CD739BACA3ABB8
:10304800B3ABBB8ABB8ABB49B329B329BB8AC3ECE0
:10305800CC6ED48FCC8FBC0EB40DA38BABCDAC4E45
:10306800D593E656DE56DE56D656DE76DE96E697DB
:10307800E676E696E696E697E6B7E696DE76DE76B6
:10308800DE56DE55DE55D635D5F4D5F4D5F4D5F46F
:10309800D5D3CDD3CDB2C5B2C592C592C592BD71B7
:1030A800BD51BD31BD51BD31B4F0B510BD30B4EF27
:1030B800ACCFB4EFBD10BD10BD10BD0FBD10C551D4
:1030C800CD71D5B2D5F3D5D2DE34DE34E675DE5512
:1030D800DE14D614D5D3CDB2C572C571C572CD92E2
:1030E800CD93CDB3CDB3C593C572C552BD31BD1116
:1030F800BD11B4F1B4F2B4F2ACD29C717B8D4A49E3
:1031080031A6212518E40841084118C318A2104126
:1031180010401040CDF5CDF5CDF5CDF5CDF5CDF57B
:10312800CDF5CDF5CDF5CDF5CDF5CDF5CDF5CDF587
:10313800CDF5CDF5CDF5CDF5CDF5CDF5CDD5CDD5B7
:10314800CDD5CDD5CDD5CDD5CDD5CDD5C5D5C5D577
:10315800C5D5C5D5C5D5C5D5C5D5C5B4C5B5C5B5F8
:10316800C5B5C5B5C594BD94BD94BD94BD94BD9475
:10317800BD94BD94BD94C594BD32CD93A40D9B6AF6
:10318800ABABAB6AB329B329B329BB6AC3CBC3ECD6
:10319800C40CC40DBBEDABAC9B2AA38CABCDC4B0A7
:1031A800C4F1C532C573C593CDF4DE76EED8E6B763
:1031B800DE56DE55E676E696E697E696E696DE76FF
:1031C800DE76DE55DE76DE35D614D614D614D5F383
:1031D800D5D3CDB2C592C592C571C571C572C55159
:1031E800BD31BD30BD31B4F0ACAFB4CFB4EFACAE8F
:1031F800A46DACAEACAFACAEB4CFACAEB4CFBD305A
:10320800B4EFC571CDB2CDB2DE14DE34E655DE348E
:10321800D5F3D5D3CDB2CD91C571C571CD92CDB20F
:10322800CDB3CDB3CDB3CD93C572C552C552C5325A
:10323800BD11B511BD32B512B512AD1394506B2C3A
:103248004A4939A7210418E418E418A20820106193
:1032580018A11060CDF5CDF5CDF5CDF5CDF5CDF5B1
:10326800CDF5CDF5CDF5CDF5CDD5CDD5CDD5CDD5C6
:10327800CDD5CDD5CDD5CDD5CDD5CDD5CDD5CDD536
:10328800CDD5CDD5CDD5CDD5CDD5CDD5C5D5C5D536
:10329800C5D5C5D5C5D5C5D5C5B4C5B4C5B5C5B4D9
:1032A800C5B5C5B5C594C594BD94BD94BD94BD942C
:1032B800BD94BD94BD94BD74BD73C552BCD09B8BE9
:1032C800A38AA349AB49B349BB4ABB6ABB8BB36A60
:1032D800B34AAB4AAB4A9B09A34AB3CDCCB0CCD1D5
:1032E800B44E936BAC6EB4D0C572CDF4DE55DE35FA
:1032F800D5F4D5F4DE55DE75E696E696E696E676DE
:10330800DE76DE76DE76DE55DE35D634D614D5F3B7
:10331800CDD3CDB2CDB2C571BD51BD51BD51BD31B9
:10332800B510B510B510ACAFAC8EACAFACAEA44D0B
:103338009C2CAC8EA46DA44DACAEA46DACAEBD10EF
:10334800ACAEBD10CD71CD92DE14DE34E655DE1480
:10335800D5D3D5D3CD92CD91CD72C571CD92CD9225
:10336800CDB2CDB3CD92CD92C572C572C572C552DC
:10337800BD31BD11BD11BD12B512ACF2A4B18C0F97
:103388006B0B39C639C7318618C3106118A2188269
:1033980010411061CDD5CDD5CDD5CDD5CDD5CDD597
:1033A800CDF5CDF5CDD5CDD5CDD5CDD5CDD5CDD5C5
:1033B800CDD5CDD5CDD5CDD5CDD5CDD5CDD5CDD5F5
:1033C800CDD5CDD5CDD5CDD5C5D5C5D5C5D5C5D505
:1033D800C5D5C5D5C5D5C5D4C5B4C5B4C5B5C5B499
:1033E800C5B4C5B4BD94BD94BD94BD94BD94BD94FD
:1033F800BD94BD94BD94BD94C594BD52CD72AC4DE1
:103408009B6AA34AAB49AB29B349B34AB34AB32A27
:10341800AB09A309A32AA32AB3ACBBEEBBEDA36BEC
:103428009B4B9B6B9BACAC6FBD11BD31BD52C57244
:10343800C592CDD3D614DE14DE55DE75E675DE559D
:10344800DE55DE55DE55DE55DE55DE34D614D5F3B1
:10345800D5D3CDB2CD92C571BD30BD10BD10B5105C
:10346800B4EFB4EFB4CFA46EA44EAC6EA42D93CB3E
:1034780093CBA42D9C2C9C0CAC8EA42DA44DB4CF26
:10348800ACAEC551C571CD92DE14DE14DE34D5F371
:10349800D5B3CDB2CD91CD91CD71C571C571CD7278
:1034A800CD92CD92C571C551C551C552C551BD31D9
:1034B800BD11BD11BD11BD32B512B4F1ACF2A4B14C
:1034C80083AD52483144290310811061188210617C
:1034D80010411882CDD5CDD5CDD5CDD5CDD5CDD52D
:1034E800C5D5C5D5CDD5CDD5CDD5CDD5CDD5CDD5D4
:1034F800CDD5CDD5CDD5CDD5CDD5CDD5CDD5CDD5B4
:10350800CDD5CDD5CDD5CDD5C5D5C5D5C5D5C5D5C3
:10351800C5D5C5D5C5D4C5B4C5B4C5B4C5B4C5B479
:10352800C5B4C5B4C5B4BD94BD94BD94BD94BD9493
:10353800BD94BD94BD74BD94BD73BD73C572C511F2
:10354800A3CC9B8AA329A309AB09AB2AB34AB32A04
:10355800AAE9A2E9A30AAB6BAB6BAB6B928892A802
:1035680092E9A38B9B8CA40DAC4EA46EACAFBD109E
:10357800C551C571CDD3CDD3D5F3D614D614D61431
:10358800D614D614D634DE34DE34D634D614D61354
:10359800D5D3CDD2CD91C570BD30BD10BD10B510FD
:1035A800B4EFB4CFACAFA44DA42DA42D93CB836AB4
:1035B8008B8A9BEC93EB93ECA46D9C0C93CB9C2C8B
:1035C800ACAECD92C551CD92DE14D5F3DDF4D5D392
:1035D800CD92C571C551CD71CD71C551C550C5715B
:1035E800CD72C571C571C571C551C531BD31BD112A
:1035F800BD11BD11BD11BD11B4F1B4F1ACF1ACD127
:103608009C6F83AD52483985292320E318811061C6
:1036180018811041C5D4C5D4C5B4C5B4C5B4C5B4A2
:10362800C5B4C5B4CDD5CDD5CDD5CDD5CDD5CDD5D4
:10363800CDD5CDD5CDD5CDB5CDB5CDB5CDD5CDD5D2
:10364800CDD5CDD5C5D5C5D5C5D5C5D5C5D5C5D592
:10365800C5D5C5D5C5B4C5B4C5B4C5B4C5B4C5B458
:10366800C5B4C5B4BDB4BDB4BDB4BD94BD94BD941A
:10367800BD94BD93BD74BD94BD53C593BD52C57271
:10368800B48F9B8B9B4A9B099AE8A2E9A2E9A2E91D
:10369800AAE9A2EAAB2AAB4AAB4B92678A478247B0
:1036A8008A887A468AE9934A938B9BCCAC6EB4EFAE
:1036B800BD10BD10C571C571C591C592C592C592A1
:1036C800CDB2CDD3D5F3D5F3D5F3D5F3D614D614DF
:1036D800D5F3D5D3CD91C550BD30BD30BD30BD106B
:1036E800B4EFACAEAC8E9C0C9BEC9BEC8B8A834904
:1036F8008B8A93CB93AB93CB9C0C93AB7B288B8A15
:10370800AC6EC551BCF0C551DDF4D5D3D5D3CDB21F
:10371800CD71C530C530C551C571C530BD30C55135
:10372800C571C551C551C551C551BD31BD11BD107A
:10373800BD10BD11B4F0B4D0ACAFB4D0ACB0ACB027
:10374800ACD0A49083AC49E628C228E220E318A2B2
:1037580018821081C5B4C5B4C5B4C5B4C5B4C5B460
:10376800C5B4C5B4C5B4CDB4CDB4CDB4CDB5CDB55F
:10377800CDB5CDB5CDB5CDB5CDB5CDD5CDB4C5B41B
:10378800C5B5C5D5C5D5C5D5C5D5C5D5C5D5C5D581
:10379800C5D5C5D5C5B4C5B4C5B4C5B4C5B4C5B417
:1037A800C5B4C5B4BDB4BD94BD94BD94BD94BD9419
:1037B800BD93BD93BD94BD74BD73BD73BD52C57239
:1037C800C552938B8B0992E99B09A309A2E9A2C967
:1037D800A2E9AB0AA32AA3099AA88A6781E57A0510
:1037E80079C569A4720582878B4A9BECAC4DAC8E77
:1037F800B4CFBD10BD10B510B510BD30BD31BD5131
:10380800C592CDB2CDD3CDD3CDD3D5D3D614DE3456
:10381800DE14D5D3C571BD30BD0FBD0FBD30BD3071
:10382800B4CFAC8EA44D93CB8BAB8BAB836A83495F
:103838008B8A93CB93CB8B8A93CB8B6A72C7832962
:10384800A44DB4CFACAFBD30D5D3D5B3D5B3CD929D
:10385800C551BD10BD10C551C551C530BD30C5508D
:10386800C551C550BD10BD10BD10BD10BD10BD1057
:10387800B4F0B4F0B4F0BCF0BCF0BD11BD11BD1192
:10388800B4F1ACB0A4B0940E62893944290320C2C3
:1038980018811061C5B4C5B4C5B4C5B4C5B4C5B440
:1038A800C5B4C5B4CDB4C594C5B4CDD5CDD5C5B40E
:1038B800C5B4CDB4CDB4CDB4C5B4C593C5B4C59461
:1038C800CDD5C5B4C5B4C5D5C5B4C5B4CDD4C5D496
:1038D800C5B4CDD5C593CDF5CDD5C5B4BD94C5B4C6
:1038E800C5B4BDB4BD94BD94BD94BD94BD94BD9301
:1038F800BD93BD93BD93BD94BD93B573BD53C5939F
:10390800B5119BED6A268AC8930992C89AA89AA805
:103918009A889AC99AE99B0992A882068A4779C522
:10392800698361637A468AE99BABA40CA42DA46DD4
:10393800AC8EACAEACAEACAEACAEACAEACCFB51043
:10394800BD31C571C592C592C592CDB3D614D614F2
:10395800D5D3CDB2B4EFB4EEBD30D5D3DE13CD910F
:10396800BCF0AC8E9C0C8BAA93AB83498B6A8B8A78
:103978007B08938A8B6A83288B697AE87AE883299B
:103988009C2D9BEC9C0CA44DBD31BD10CD72CDB2CD
:10399800C531BD10C551C571C571C531C550C551B9
:1039A800C530CD92C530C530C531C531BD30BD102B
:1039B800BD10BD30BD31C531C531C531BD31BCF0DB
:1039C800B4D0B4D0B4D0ACD19C2F6AEA398520C227
:1039D80018811881C5B4C5B4C5B4C5B4C594C59417
:1039E800C594C594C5B4CDB4C5B4C594C594C5B47F
:1039F800CDD5C594C594C593C5B4CDD5C5D5C5B4E5
:103A0800C5B4C5D5BDB4C5B4C5B4C5D5CDD5C5D463
:103A1800C5B4C5B4CDD5C593BD73C594C594BD947F
:103A2800C5B4BDB4BD94BD94BD94BD94BD93BD93C0
:103A3800BD93BD93BD94B573B573B573B573BD939D
:103A4800BD52B4D06A676A058AC8828782468A6787
:103A580092A892A89AE98AA8824682478A6782260B
:103A680079E5824693299B8BA40CA42DA42CA42D24
:103A7800A44CA44CA44DA46DA46DA46DAC8EACCF85
:103A8800B510BD51BD51C571C571C571CD92CD92ED
:103A9800BD51B4EFCD91D5F3DE13D5F3D5D2CDB268
:103AA800C551A46D9C2C8BAB93CB8B8A8B6A8B4AAC
:103AB8007AE88B6A834972867AC772E762258B6ACD
:103AC80093CC8B8B836A72E88B8BA44DAC8FC551DA
:103AD800C551BD31C551C551C571C571CD72C550EE
:103AE800BD10CD71C530BD30BD10C530BD31BD3143
:103AF800BD51C551C551C551C551C531BD10BCF0E9
:103B0800B4D0B4D0BD11B4F1B4F1ACD18BCD5A4816
:103B180031442903BD94BD94BD94BD94C594C59406
:103B2800C594C594BD73C594C5B4C5B4C594BD73D7
:103B3800C594C5D5CDD5C5B4C5D4C5B4BD94BDD57A
:103B4800BD94C5D5BDD5BDD5BDD5C5B4C5B4BD9489
:103B5800BD94C594ACD19C2EA46FC593C5B4BD7358
:103B6800BD94BD94BD94BD94BD94BD93BD93BD93C8
:103B7800BD93BD73BD94B553B573B573B552B55206
:103B8800BD73BD5293CC59C472467A467A46826751
:103B98008A87826793098AC87A468AA892A892A8CF
:103BA8008AA89B4AABCCABECA42DA42DA40C9C0CEE
:103BB8009C0C9C0C9C0C9C2C9C2CA44DA46DAC8E39
:103BC800B4CFB510B4F0BD10BD30BD31C551C5512D
:103BD800BD30BD30D5B2D5D2CDB2CD91C551BD30F5
:103BE800C551B4F0C572ACAF9C0D834A8329834993
:103BF8007AC883297AE872866A6672A75A058B8B17
:103C080093ED8BCC520549C45A267B4A836AAC8F04
:103C1800AC8FACAFBD31BD11BD31BD31C551C55142
:103C2800C531CD72C530C530BD30C550C551C5711F
:103C3800C551C551C551C531BD10BCF0BCCFB4CFBD
:103C4800B4CFB4D0BD10B4F1BD11BD32B4F28BED18
:103C5800522620C1BD93BD93BD93BD93BD73C5943A
:103C6800C594C594BD73C5B4C594BD73C5B4C5D555
:103C7800BDB4BD73BD94BD94C5D5BDD5C5F5D678C5
:103C8800BDB5AD74A512A512AD32BD94BDB4B533A2
:103C9800942E7B6B836B72E9838BC573C5B4C59413
:103CA800C594BD94BD94BD94BD93BD93BD93BD9380
:103CB800BD73BD73BD93BD73B573BD93B573B55275
:103CC800B552BD52B4F16A6759C46A057A4672267C
:103CD8007A2682A8934A93298AC88AC892E99B4A75
:103CE8009B4AA3ABA3ECA3ECA40CA42CA42C9C0C83
:103CF8009C0C9C0C9BEB9C0C9C2CA42DA44DA46DA3
:103D0800AC8EACCFACCFB4CFB4F0BD30BD31BD10AC
:103D1800BD30CDB2C550BD0FB4EFBD30BD10BD1024
:103D2800C571CD92BD31B4CFA44D83297AE88329DA
:103D38007AE87AC872A772C762465A056AA893EDEC
:103D48007B4B49C5310241844184520562888BAC62
:103D5800838B8BCC940DA48FB4F0B4F0BD31CD928D
:103D6800C551BD10C551C530C551C571CD72C5719C
:103D7800C551C531BD10BCEFB4CFB4AFB4AFB4CFEB
:103D8800BCCFBCF0BCF0BD11BD11B4F1BD32B51251
:103D98008BCD5A47BD73BD73BD73BD73BD73BD7302
:103DA800BD73BD73C594BD93BD73BD94BD94BD93E0
:103DB800BD93BDD4BDB4BDF5C636B5D5A553A55381
:103DC800844F7BCE7BCE7BCE7BEE7BCD6B4B6B0A61
:103DD8006B2B732B7B2A72E97B4BC573C573C59418
:103DE800BD94BD94BD93BD93BD93BD93BD73BD7389
:103DF800BD73BD73B553BD73BD93B573B573B5735B
:103E0800B552BD52C5539BED59E5620572466A0528
:103E18007246936A936A934A932A8AE9934A936A01
:103E28009B8B9B8BA40CA40CA42CA42C9C2C9C0BCF
:103E38009BEB9C0C9BEB9C0C9C0C9C0C9C2C9C4D1D
:103E4800A46EAC8EACCFB4F0B4F0B4F0B4EFB4CF91
:103E5800B4CFBD10A44DAC8EACAEB4CFB4EFBD1092
:103E6800BD31B4F0AC8EA46EA42D834A72C77AE833
:103E78007AC872A76A876A876AC8836B8BCD5A67C4
:103E88003963398428C231232903290249E662A902
:103E980062C962A86AC983ACA46FA48FACD0C551AB
:103EA800C551BD10C510C530C551CD71CD71C531D5
:103EB800BD10BD10B4CFB4CFB4CFB4CFBCCFBCF01D
:103EC800BD11C531C551C551BD31BD11BD11BD11A2
:103ED800ACD0A44EBD73BD73BD73BD73BD73BD734C
:103EE800BD73BD73BD73B553BD73BD94BD93BD9311
:103EF800C5D4BDF5B5D594D17C2F73EE7C2F8C91AC
:103F08007C2F7C0F7C0F6B8D632B5AEA5ACA6B2B64
:103F18007B8C83AD7B2A832A7B4BBD32C573C594CA
:103F2800BD73BD94BD93BD93BD93BD93BD73BD7368
:103F3800BD73BD73B552BD73BD73B553B573B5735A
:103F4800B552BD52C594C5536A67620572877287B8
:103F58007AC7938A938B8B4A936A8B4A938A936A1C
:103F68009BAB9BCBA42DA44DA44DA44C9C0C9BEBCC
:103F78009BCB9BEB93EB93CB93CB93CB93EC9C2C6E
:103F8800A46EAC8EACCFB4F0B4CFAC8EACAFB4CF23
:103F9800A48E9C0C93CBA42CA44DA46DAC8EB4CF52
:103FA800ACAF9C2DA46E9C0C93AB834A7AE87AE85C
:103FB80072A772876A676AC893ED5A47394349E618
:103FC8002923188120C218A2210320E23144398410
:103FD80041E641A541A562878BEDACB0B4F0B4F0E1
:103FE800B4F0BD10B4CFBCF0C530C551C531BCF07C
:103FF800B4EFB4CFB4AFB4AFB4CFBCCFBCF0BD1046
:10400800C531C551C551C531C531BD11BCF0B4D09C
:10401800ACAFAC8FBD53BD53BD53BD53BD53BD53A2
:10402800BD53BD53B553BD73BD93B573BDB4D677FA
:10403800CE1594B073ED7C0E8470849184917C507D
:104048007C5084717C7073EF6BAD634C52A95ACA73
:104058006B4C7B6C7B2A832A7B0AA490C594BD7326
:10406800BD73BD93BD93BD93BD93BD73BD73BD7348
:10407800BD73BD73BD53BD73B573B552B573B55339
:10408800B553BD73CDD5D5D57B096A678309832917
:104098008B6A8B6A93AB8B8B938A938B938B938B63
:1040A8009BECA42CA44DA46DA46D9C2C93EB93CBFA
:1040B80093AA93AA8BAA8BAA93AA93CB9C0CA44DE0
:1040C800A46EAC8EACAFACCFAC8EA46EAC8EAC8E06
:1040D8009C0C8BAA93EB9BEC9C0CA44DA46DA46E3A
:1040E800A46E940C8BAB7B297B087B097AE87AC891
:1040F80072A77287836B836B3102310249E620C154
:10410800188118A2108210A220E318E3210318A234
:10411800290320E220A13943730AACD0BD52B5115E
:10412800AC8FAC8EB48EB4AFBCEFBD10BCEFB4CFC7
:10413800B4AFB4CFB4AFB4AFB4AFB4CFBCF0BD106C
:10414800BD10BD11BD31C551C551BD31C531C551B8
:10415800BD10B4AFB553B553B553B553BD53BD53E7
:10416800BD53B553BD93AD32C5D5D697CE36BDB484
:10417800A5328C6F849084B184B17C707C917C5022
:104188007C7174507C917C307C2F6BAD52EA52CAA2
:104198006B4C738C836C834B72E9940DC594BD533F
:1041A800BD93BD93BD93BD93BD93BD73BD73BD73E7
:1041B800BD73BD73BD53BD73B553B553BD93BD73C7
:1041C800BD73CDB4DE15D61593EC836A93CB93AB50
:1041D800A42D9BEC93CB93CB93AB93AB8B8A9BCBCC
:1041E800A40CA44DAC6EAC8DA44D93EB8BAA8BAAFA
:1041F8008B8983498B6A8B8A93AB9BECA42DA46D26
:10420800AC8EA48EACCFA48EA44DA46EA44D93EC1A
:10421800836A836A8B8A93CB93EB9C2CA44DA44D21
:104228009C2D8BCB836A7B0872E86A8762256A6655
:104238007AE8834A522620A13964290220C218A1AB
:104248001081108110A218E31082086120E318A2DF
:1042580018A220C218A120A04A068BEDACF1B51116
:10426800ACCFAC8EAC8EB4AEB4AFB4CFB4AFB4AF49
:10427800B4AFB4AFB48EB4AFB4AFB4CFBCCFBCF0AE
:10428800BCF0BD10C551C551C551C551C531C53169
:10429800BCF0B4CFB512B532BD73B512BD73B5322B
:1042A800B552B552B573CE36CE77CE77B5D58CF13B
:1042B8008CD184B184B17C917C9184B27C717C7006
:1042C8007C707C507C7084B17C50740E6BAD52EA6B
:1042D8005AEB738C838C7B2A7B2A83ABC573BD9383
:1042E800BD72BD93BD93BD93B552B573BD94BD73F7
:1042F800B553BD73B573BD73B573B553B553BD73BE
:10430800BD73DE56E655D5D3BD30ACAEAC8EAC6EC3
:10431800AC4DA42D93AB93AB938B93AB9BCC9C0CE4
:10432800A42DAC4DA44DA44D9C0C8BAA8B898369FC
:10433800834983698B8A8BAAA42D93ECAC8EA46DD8
:10434800A46EA48E9C4DA48EA48E9C2C93CB8BCB58
:104358008B8A836A836A834A8B8A8B8A8B6A8B6A85
:1043680083497B28834983697B0862465A2572E81A
:104378006AA83122290320E218A218A118A21081E4
:10438800108110611061108118A218A218A2108162
:104398001081108118A118A131434A068C2EAD1145
:1043A800ACF0ACAFB4CFAC6EB4AFB4AFB4AFB4AFE5
:1043B800AC6FBCD0B48EB48EB4AFB4CFB4CFBCEFB6
:1043C800C510C530C510C531C551C551C551C53118
:1043D800BD10B4CFB532BD73ACF1B512B532AD1264
:1043E800B552B593D698AD94846F8CB095128CD194
:1043F80084D17CB17CD17CB17C9184917C518491B5
:1044080084917C507C91A5B595337C707C506BADC4
:104418005B0B6B4B7B6B836B7B6B838BB532BD7399
:10442800BD93BD93B572BD93BD93BD73BD93BD736D
:10443800B553BD73BD73B573B552B573C594BD326D
:10444800C593EEB7E675DE54D5D2CD91C550BCCF35
:10445800AC4D9BEC93CB93AB93AB93AB9BECA42D64
:10446800AC4DAC4DAC4D9C0B8B8A8348834983483B
:1044780083498B8A93CB93EC9C4D9C2DA48EA46D81
:104488009C4DA46EA4AEA46E9C2D940C93EB93EB60
:104498008BAB838A7B4A836A8BAB836A7B298328AD
:1044A800832883498349836A7B0962875A2639634B
:1044B80028E128E218A21882108110811882108140
:1044C8001081108110811081108118A218A218A2E1
:1044D800106108400820108118C118A141E57B8BA4
:1044E800ACF0ACD0BD31B4AFB4AFB4AFBCF0B4B085
:1044F800B4AFBCD0B4AFB4AEB4AFBCEFBCEFBCF09B
:10450800C510BD10C530C530BD10BCF0BD10BD1004
:10451800BD10B4F0B512ACF1B532B532AD32AD5311
:10452800AD53C636B5B5A5538CB18CD18CF284B1D8
:1045380084F284D184D17C917C708491849184713B
:104548007C717C7174308CF284F27C70744F7C2F97
:10455800740E6B8C7B8C838C732A7B4AACD0BD9396
:10456800BD93BD93BD72BD93BD73BD53BD73BD7384
:10457800BD73BD93BD93B552BD73B573B532C573E5
:10458800E697EED7EE96E675DE13D5D2CD70BCCFA2
:10459800A44D9BEB9C0C9BEB9BEB9BECA42DAC4D97
:1045A800A44DA40C9BCB938A834983488369836970
:1045B800838A93CB93EB9C2C940C9C4D9C4D9C4DE7
:1045C8009C2C9C4DAC8E9C2C93EB93EB93EC93CB57
:1045D8008BAB8BAA83498349836A834983297B28C8
:1045E8007B087B087B297B297B2A5206394320A13B
:1045F800188020C11881106110611082108110810B
:10460800108110811081188218A218A210811061DF
:104618000840084008411061108108401060396462
:104628008BEDACF0ACAFACAFAC8EACAFBCD0B4AF34
:10463800BCCFB4AFB4AFACAEACAEB4AFB4CFBCF0DB
:10464800BD10BD10BCEFBCCFB4CFB4EFBCF0BCF014
:10465800B4D0ACAFB532ACF1AD12AD12AD12A512FB
:10466800AD947C2F844F8CB18CB184D184B184B14A
:1046780084D284D184B184909512A594ADB58CD29E
:104688007C7184B17C717C707C917C9174507C4F7E
:1046980084707BEE7BAD7B8C62E9732A944EBD936C
:1046A800BD73BD73BD93BD73B552B552BD73BD73B4
:1046B800BD73BD73AD32BD93BD93BD53BD52C5939C
:1046C800DE56EEF7F6D6EE95DE33D5D2C550BCEF02
:1046D800B4AEAC6DA42CA42CA44DAC4DAC6EAC4DBA
:1046E8009BEC938A8B698B698B898B898B8A8B89E5
:1046F8008BAB9C0C9C0C9C2C93EB9C0C9C2C9C0CCE
:104708009C4D9C2D9C0C93EB93CB93EB93CB8BAA5A
:10471800838A8B8A8349832883297B287B287B2962
:104728007B0873097B2A7B2A730A28E21020106011
:104738001881084010811082108210821081108127
:104748001081108110811081108110611041084082
:1047580010611061106108210841084108201040CB
:104768004A067B4B940DA48FA48EACAFB4AFB4CFE4
:10477800BCF0B4CFB4CFB4CFB4CFB4CFB4CFBCF0C7
:10478800C530BD10B4CFB4CFB4CFBCF0B4F0B4CF03
:10479800AC8EA46EACF1B532A4F1A4D1AD539CF2A9
:1047A8006B8C7C2F84B184B184B184D28CF284D296
:1047B80084D284B18CB19CF1BE16C678D6DA9D330A
:1047C80084917C917C917CB174707CB184D27C5052
:1047D800740F7C2F7BEE83EE632A6B4B7BACB55357
:1047E800BD73B573BD73BD53BD72BD93BD73B57253
:1047F800B552B552BD93BD93B532A4B08BCCC5921A
:10480800EEF8EEB6EEB6E695E633D5F2CD91C530C4
:10481800BCEFB4CFAC6DAC8DAC8EAC8EAC6EA42DB1
:1048280093AB83498B6993AA93AA8B898B898BAAAB
:1048380093EB9C2C940C93EC8BCB940C9C2C93ECCE
:104848009C4D9C2C8BAA8BAA8BAA8BAA8BAA8B6AB1
:10485800834983497B08830883287B087AE872E8C0
:104868006AC87309730A6AEA52681880188118813D
:10487800106118A2108210821082106110611061FC
:10488800106110611081106108200840106118A2A1
:104898001081106110420841084100000840104092
:1048A80018813123524683AB942DA48EA44DB4CFE6
:1048B800BD10BCEFBD10BD10BD30BD30BD10BD304A
:1048C800C531BD30C531BD10B4EFB4CFACAFAC6E9F
:1048D800A46EA46EACF29CB0AD329CF19D12636CD8
:1048E8007C708CF27C9184D184D284B184B18CB2F6
:1048F80094F29512B593C615DED8D698D6FAA55473
:1049080084B17C917C71749174717C917CB17C5080
:104918007C507C4F7C0E8C5073CD738C736CA512BD
:10492800B573BD73BD73BD53BD73BD93B572B55239
:10493800BD73BD93B573AD318C0D7B6B83ABD63531
:10494800F6F8F6F7EE95E674DE13D5D2CD91CD7074
:10495800C530BCEFBCEFBCEFBCEFB4AFAC8EA42D40
:1049680093AB83298B8A93CA93AA8BAA93CA9BEC8D
:104978009C0C9C2C93CB8BAB8BCB940C9C0C93EB0F
:10498800940C8BCB8B8A8B8A8B8A8B6A8B6A836914
:1049980083297AE87AE77B087B087AE87B096AC882
:1049A800520649E53143290321031040106108618B
:1049B800084110821081106110611061106110822D
:1049C800108110811061084008401061188118A2F8
:1049D80018A2108210621062106200000841106173
:1049E80008201881104062A89C4EACCF9C0CA46D86
:1049F800B4CFBD10BD10BD10BD10B4EFB4AFBCEF47
:104A0800C530C530C530BCEFB4AFAC8EAC6EA44D6C
:104A1800A44DA44DA4F2AD129CD194D16B8C84907A
:104A28007C7084B17C9184B184D284B194F2A594D1
:104A3800B5F6C616D697E6F8E6F9CE77D6B8AD94A9
:104A48008CD284B284D27CB27CB27CB17450745063
:104A58007C917C4F7C0F7C4F7C2F73CE73CD9490D0
:104A6800B553B574BD73BD73BD73B572B552BD9200
:104A7800BD92AD319CB0734A734A8C0DA4AFE696D3
:104A8800EEF7EED7EEB6E674DE13D5D2D5D2CD91D9
:104A9800CD71C550C550C530BD10B4CFB48EA42D4E
:104AA8008B8A7B088B6A93AA93CB93EB9C2C9C4DA7
:104AB8009C2D9C2D8BCB83AA8BCB9C0C93EB93EBDF
:104AC8008B8A836A8B8A8B8A836983498349832982
:104AD8007B0872C772C772E772C772E873095A67B0
:104AE800312318A11881082010811082084108611B
:104AF80010820841106110611061106110821082EB
:104B0800108110610840106118A218A2108110814C
:104B1800188118A21062106210620841000000009B
:104B28000820108108205267946FA48F9C2D9C4DFB
:104B3800ACAFBCF0B4CFACAFAC8EA44DA44DACAE12
:104B4800BD10BD10B4CFAC6EA42DA42D9C2D9BEC34
:104B580093CB93CBA4D1A4F2A512A5337C4F849018
:104B680084D184B184D184B19512ADB5B5F6BDD5E3
:104B7800BDF5CE56DE77E6B7D656CE56CE77AD948F
:104B8800849184B2747184F374B274717C9174707A
:104B980074507C707C70740F7C2F7C0F7C2F840E7B
:104BA800A4F2B553B553B573B573B572B572BD9369
:104BB800AD118C0D6B2A6B0983CC8BECA48EEED7D0
:104BC800F717EED6E675DE34DDF2D5D2D5D2D5D2DA
:104BD800CD91C550CD70C550BD10B4CFAC8E9C0DD5
:104BE800834A6A878B8A93CB9C0C9C2CA44D9C2D62
:104BF8009C2DA46E93EC8BAB8BCB9C2D8BCB9C0C00
:104C0800836A836983498349834983497B0972E8B5
:104C180072A76AA76A876AA76AA762A862A84A06EB
:104C280020C2106010611061084110621082106289
:104C380010620861106110611061106110611061EB
:104C48001041082010811081188118811881108165
:104C58001881188118A218820861086200210021B1
:104C6800108200200840292362C962C983AC9C2DA8
:104C7800ACAFB4CFA46EA44DA44DA44DA44DB4AF15
:104C8800BCEFBCEFB4CFA44D93CB93CB93AB8B8A43
:104C980083498349A4F2A512AD539CF28470849091
:104CA80084B1849084B1ADB5B5F5B5D5BDD5C5F59C
:104CB800D657DE77DE76D655C5D4BDD4BE169D331D
:104CC8007C9184D27CB27CB27CB27CB27C917C70C8
:104CD800747074507C717430742F7C507C2F7BEF0F
:104CE80084509CD1B574AD53B573B593AD529CD077
:104CF8006308738A7BAB734A7B6A8C0CB510EED75A
:104D0800F717F6F6EE95E654DE13D5F2D5D2CDB107
:104D1800CD91C571CD71C551BD10BCF0A44E93ACF9
:104D280051C44963832A9C0DA42DA44DA46EA46E7E
:104D3800A46E9C4D93EC93EC93EB940C93EC8BAB9F
:104D4800834A83298349834A83498349834A72C8AA
:104D58005A2552055205520549E53984290318A1F7
:104D680010611081106110610862086208611061A9
:104D78001061106110620841106110820841000042
:104D8800084020E31081108110811081188118815A
:104D98001881188118821082106108410841084161
:104DA800004100400020108118A120A14A068BCDA7
:104DB8009C4E9C2D9C0C9C0C9C0DA42DAC6EAC8E1A
:104DC800AC8EB4AFAC8EA42D93CB8B6A836A834A26
:104DD800834A8B6AAD53AD539CD18C708CB184706F
:104DE8008CD1B5F6B5F5C657BE16BDF5CE36D65636
:104DF800E677E677D615CDF4BDB4B593AD949512A4
:104E080084B17CB17CB27CB27CB27CB27C9174708F
:104E18007470745074707C717C707430740F7C2F53
:104E280084508C509CF2B594AD53AD73840D52668A
:104E3800736A738B83EC736B7329838ABD51EEB6E7
:104E4800F6F7F6F7EEB5E674DE33DE13D5F2D5D213
:104E5800CD91C571C550BD10BD10B4AFA42D72C899
:104E680030C030A08B6BA42EA46EAC8EACAFAC8FD0
:104E7800A46E9C4D9C2D940C940C940C93EC8B8AF2
:104E8800832983297B29834A7B2972E973096AA8C4
:104E9800520541A441A429021880104010601061F5
:104EA8001061086108620862086208611061106197
:104EB8001061106208411082108108411041188267
:104EC80018A2106110811081108110811881188139
:104ED8001881188118811081106108610841084102
:104EE80008410041000000200840104020A14185F1
:104EF8006288836B93EC93EC93EC9C2DA42D9BEC34
:104F080093CC9C0CA44D9C0C8B8A8349834A834A7E
:104F18008349834AA4F28C708C9094B094D1B5F5EF
:104F2800CE98B5D5C636BE16C615CE15DE77E6B808
:104F3800DE56D635CDF5C5F5C5F5B5B49D128CD17F
:104F480084D284D27CB27CB27CB27CB27CB17C91BB
:104F58007CB184B174507C917C917430742F7C50F6
:104F68007C2F7C0F8C70A533A533630A6309738B80
:104F780052876B2A7BAC8C0D8C0D838ABD71E695AC
:104F8800E675EE95E675E654DE13DE13DE13D5F20C
:104F9800D5D2CDB2C550BCEFB4D0AC6E9BED5A069D
:104FA800206030C18B8B9C2DAC8FB4D0B4F0ACAFEB
:104FB800AC8F9C4D9C2D9C2C9C2D9C2D93CB836A57
:104FC8007B297B297B297B4A7B29730972E96288C3
:104FD80049C5312318811061084010611081108182
:104FE8000861086108620862086110611061106157
:104FF800106110611061084108410841108218A22F
:10500800188210411081108110611881188118814F
:105018001881188118811881106110610861086170
:105028000841004108410020082008401040104075
:105038002902522773097B4A8B8B93CC93CC8BAB79
:10504800836A8B8B9BEC93CB834A7B29834A7B4A6D
:105058007B297B2994909CD09490A4F2C5F5C63600
:10506800BDD5C616C615C5F5CE56DE77E6B8E6B880
:10507800D615CDF5CE16C616BDD5A53384907C4F72
:105088007C917CB17CB17C927C927CB17CB17CB10E
:1050980084D28D127470747074707C717C5074300A
:1050A800742F7C2F740E844F5AEA4A674A47738BD1
:1050B80073AC526762E97BAC942D6AE8B530EEB602
:1050C800E695E654E634DE13DDF3DDF3DE13DE1396
:1050D800D5F2D5D2CD91BCF0AC8E9C0D8B6B51C462
:1050E8002060498493ACA44EB4F0BD31B4F0ACAFA9
:1050F800AC8EA44D9C2D9C4DA44D9C2D93CB836AC6
:105108007B297B297B29730972E972EA628841A5A8
:1051180028E218A110410861106210820861084154
:1051280008611082086210621061106110611061DC
:1051380010411041106100000000106110821061E0
:105148001041108210611061106110611081188186
:105158001881188118811881108110611061086107
:105168000841084108410020084008400820102054
:10517800104020C2312249C452265A26626772E979
:105188007B2A834A8B8B836A7B2A7B297B2A730938
:1051980072C86AC8946FA511CE56EF1ADEB8C5F565
:1051A800C5F5CE16CE36CE36DEB8E698DE77DE56B4
:1051B800CDF5CE16D657BDD59D1284707C70744F30
:1051C800742F74707C917C917C917C917C917C9102
:1051D8007CB184D17C91747074507C707C70743014
:1051E800742F744F7C2F52EA31E652EA4206420687
:1051F8006B4B7BAC4A065A878BEC7B4AB550E6B5BD
:10520800E674DE54DE34DE13DDF3DDF3DE13DE1385
:10521800D5F2CDB1C571B4CF9C2C9BEC836A6246A4
:1052280041226AA89C0DAC8FBD31BD51B4EFA48E4C
:10523800A44D9C2C940CA44DA46E9C2C8BCB838ADF
:10524800834A7B297B2A72E96AC95A8841C628E2BF
:105258001060084010821082086108410841084126
:1052680008611062106210621061106110611061B3
:10527800104110411061086108410841084110615E
:10528800108210611061106110611061108110812D
:1052980018811881186118811081108110611061BE
:1052A8000841084100200841084100000820084042
:1052B80010401861188028E13102290241845A6798
:1052C800732A838C7B6B7B4B730A6AC9628852266C
:1052D80049E549E5DE97F75AFF9BE6D8CE15CE1586
:1052E800D636CDF5D636D657E6B8DE97CE16CDF5F6
:1052F800CE16CE16BDD6A5348470742F744F744F55
:105308006C2F7450745074707C71849184B17C914A
:105318007C907C907CB17C917C91747074507450BA
:10532800742F6C0F740F532B3206426852C931C563
:1053380042277BCD5A8841C573299C4DCE13E695EB
:10534800D613DE33DE13DDF3D5F3D5F3DE13DE1328
:10535800D5F2CD91BCEFAC6D93EB9BEC8B8B7B09BD
:105368005A057B4A940DAC8FBD31B510ACAEA46D17
:105378009C2C9C0C9C2CA44DA46D940C8BCB838BE7
:105388007B4A730972E9628852274185290318A26A
:1053980018821082086208621062108210821082DD
:1053A80008620841106210621061106108410841EA
:1053B80008410841106110821061082008201081FE
:1053C800108210411061106110611061106110812C
:1053D8001861186118611861186110611061106115
:1053E8000841084108410840084008200840106169
:1053F80008601081106018801860186020C131435F
:1054080049C55A4749E649C541843143290220A183
:1054180018801880F75AF739DE97D635D635DE5614
:10542800D636D615D636DE77E698DE77CE36CE3641
:10543800CE37BDF69CF38C917C50745074507450E8
:1054480074707450745074307C507C9184B184B101
:105458007CB17C917C917CB17C9174507450745077
:105468006C506C0F6BEE534B4AA931C6426852A977
:1054780031A542076B2A4A055A66ACEFE6B6EEB686
:10548800DE54D612D5B2CDB2CD92D5B2D5F3DE1355
:10549800CDD2C571B4EEAC6C93EB93AB8BAB834AB6
:1054A800626672E993ECA48EB510ACCEA48EA48D7E
:1054B8009C0B9C0C9C4D9C4D9C2D940C8BCB836A17
:1054C8007B297309628841A5290320A118811082CC
:1054D80010A210820862086210620862084108413E
:1054E8001061106210611061106108410841086183
:1054F80008621062108208610841084108400841AA
:10550800104110611061106110611061106110612B
:1055180018611861186118611861186110611061CB
:105528001061084008400820082008400861106100
:105538000840106110611081106010601881188196
:1055480018A120C21881208118801880188118811C
:10555800188120A1EF19DE97D635D635D636DE3537
:10556800DE36DE56DE77E698DE77CE36C5F6C5F649
:10557800BE16A53394D27C707C9184D27CB184F21F
:1055880084F2747074507430742F7C50849184B198
:1055980084B184B17C917C917C91747074707450E6
:1055A800742F6C0F6BEE5B6C5B4C3A2731C65ACA92
:1055B80031853164528862E87B8ADE55FF58E6956A
:1055C800DE54CDB2CD91CD71CD70CD91D5D2D5D29D
:1055D800CD91BD30B4CEA44C9BEC8BAA9C0C9C0DF9
:1055E800832A836A9C0DACAFBD10ACAEAC8EAC8E7A
:1055F8009C0B9C2CA46E9C2D93EC93EC8BCB836A18
:105608007B2973095A6831431860188118A210A2BF
:10561800108208621082108210621062106210629A
:105628001061106110610841084108410841086291
:105638001062108208411062108208410820082078
:1056480008411061106110611061106110611061F2
:105658001861186118611861186118611861106182
:10566800104108400840084110610861086008605E
:10567800084010811061188110811040106010815D
:105688001060106018611860106010601881106058
:1056980010401060DE77D635CE15D635DE56DE568C
:1056A800DE56DE76E677DE77D636C5F6C616C63718
:1056B800ADB594F27C7184D284D284D2851384F3FC
:1056C80084F27CB174507450744F742F74507CB150
:1056D80084B184B17CB17C917C917C907470744F5E
:1056E8006C2F740F6BAE6BAE634C52EB39E631A581
:1056F8004A67298341E483ECD635FF38F6F7EE95FF
:10570800DE33CDB1C550C550CD70CD70CD70CD71E3
:10571800C571BD10B4EFA44D9BEC93CB9C0CA46E4B
:10572800A44EA44EB4AFBCF1C531BCF0B4D0A48E25
:105738009C0C9C6DA46E9C4E93EC8BAB8B8A836AFD
:10574800834A7309418420A110611082106210629B
:105758001062108210620882088208620862086279
:105768001062106208410841084108621061106126
:105778001061106110611061106110610841082109
:1057880008410841106110611061106110611061D9
:105798001861106110611061106110611061106171
:1057A8001061106110411061106110611061106189
:1057B800106110611061106110611061104110607A
:1057C80010601060108110811081108110611061CB
:1057D80010611061CDF5CE15D636D656DE56DE569A
:1057E800DE76DE77DE77CE16C5D5C5F6BDF6ADB565
:1057F8009D1384B17C9184F284D284D284F384F39F
:1058080084F27CD274707450742F742F74507C702E
:105818007C917CB17CB17CB17C917C907470744F2C
:10582800742F6C0F6BEE6BAE636D5B4C4AA939E558
:105838003A0552667329CDF4FF59FEF7FEB6F6B560
:10584800DE13CDB1C570BD2FBD0EC52ECD6FCD7089
:10585800C551B4F0ACAEA46DA44D9C2CA46EB4F0AC
:10586800BD11BCF0BCF1C531CD72CD72C551B4CFFC
:10587800A46EACCF9C4E942D8BCC8B8A836A8349C3
:105888007B49732A4A0620C2106110821082108256
:1058980010821082108208820862086210821082C8
:1058A80008610841084108610862106210621062CC
:1058B80010611061106110411061106108410821E8
:1058C80008200841106110611061106110611061B9
:1058D8001061106110611061106110411041104198
:1058E80010411041104110411061106110611061A8
:1058F8001061106110611061106110411041104178
:105908001060106010611061106110611061106109
:1059180010611061CDD4CE15D635D635D636DE76A3
:10592800DE76DE56D636C5D5C5B5C5F6B5B59D12F3
:1059380084917C917C9184F284D284D284F284F222
:10594800851384F27C917450742F742F742F7450C3
:105958007C707C917CB27CB17C917C917C907470E1
:105968006C4F6C2F640E6C0E63CD638C5B4B42677F
:105978004A468BECE656EE35DD71D510E5D3E5F3F6
:10598800D591D5D2CDB1C590BD2EBD0EC52EC52F92
:10599800B4EFB4AFA46DA46D9C4D9C4CACAEBD30BF
:1059A800BD30C551CD72BD10C531C551B510ACCF94
:1059B800ACCEB50F9C4E9C0D8BAB8B8A83497B2953
:1059C8007B4A7B4A524820E3106110831082108280
:1059D80010821082086210821082106208620841E8
:1059E8000841086110621062106210621062106251
:1059F800106210611061104110611061106108415E
:105A080008200020084110611061106110411061E8
:105A180010611061104110411041104110411041B6
:105A28001041104110411041106110611061106166
:105A38001061106110611061104110411040104058
:105A4800104110411060106010601060106010600C
:105A580010601060CDF5CE15D615D635D636DE5683
:105A6800D656D635CDF5C5F5C5F6B5B59D338CB149
:105A78007C917C917C9184F284D284D284D284D229
:105A88008512851284D27470742F742F742F6C2F22
:105A9800744F7C917CB284B284B27C917C90747097
:105AA80074706C4F6C4F640E63ED63AC6B8B738BCF
:105AB8009C8FE676DD93CCAFC42DCC8DDD0FE591C0
:105AC800D591BCEEBD2FC54FBD0EB4ACB4ADB4ADD1
