:020000040800F2
:1000000000C00020A104000885040008870400083F
:10001000890400088B0400088D040008000000001B
:100020000000000000000000000000008F04000835
:1000300091040008000000009304000895040008E3
:10004000E9040008E9040008E9040008E9040008DC
:10005000E9040008E9040008E9040008E9040008CC
:10006000E9040008E9040008E9040008E9040008BC
:10007000E9040008E9040008E9040008E9040008AC
:10008000E9040008E9040008E9040008E90400089C
:10009000E9040008E9040008E9040008E90400088C
:1000A000E9040008E9040008E9040008E90400087C
:1000B000E9040008E9040008E9040008E90400086C
:1000C000E9040008E9040008E9040008E90400085C
:1000D000E9040008E9040008E9040008E90400084C
:1000E000E9040008E9040008E9040008E90400083C
:1000F000E9040008E9040008E9040008E90400082C
:10010000E9040008E9040008E9040008E90400081B
:10011000E9040008E9040008E9040008E90400080B
:10012000E9040008E9040008E9040008E9040008FB
:1001300000000000000000000000000000000000BF
:1001400000000000000000000000000000000000AF
:10015000000000000000000000000000000000009F
:10016000000000000000000000000000000000008F
:10017000000000000000000000000000000000007F
:10018000000000000000000000000000000000006F
:10019000000000000000000000000000000000005F
:1001A000000000000000000000000000000000004F
:1001B000000000000000000000000000000000003F
:1001C000000000000000000000000000000000002F
:1001D000000000000000000000000000000000001F
:0401E0005FF8E0F1F3
:1001E40010B5054C237833B9044B13B10448AFF36D
:1001F40000800123237010BD3C0400200000000097
:100204008C16000808B5034B1BB103490348AFF330
:10021400008008BD00000000400400208C16000887
:100224002DE9F04188B000240494059406940794C1
:10023400244B9A6942F010029A619A6902F0100202
:100244000092009A9A6942F020029A619A6902F037
:1002540020020192019A9A6942F004029A619A6911
:1002640002F004020292029A9A6942F008029A6128
:100274009B6903F008030393039BDFF84C80224639
:10028400E021404600F076FD104D2246C02128466C
:1002940000F070FDE02304930127059706940326DC
:1002A400079604A9404600F045FCC0230493059733
:1002B4000694079604A9284600F03CFC08B0BDE863
:1002C400F08100BF0010024000080140000C014012
:1002D40072B6FEE708B50A480A4B03604FF4E133EF
:1002E400436000238360C36003610C224261836125
:1002F400C36101F0B3F800B908BDFFF7E9FF00BF1F
:10030400580400200038014000B591B02822002193
:1003140006A801F0F7F800230193029303930493D2
:100324000593012206924FF4803307930A92022226
:100334000D920E934FF4E0130F9306A800F036FDD0
:1003440080B90F23019302210291002303934FF4F8
:1003540080620492059301A800F05AFF20B911B0FD
:100364005DF804FBFFF7B4FFFFF7B2FF00B587B0F9
:1003740000F04AFBFFF7C8FFFFF752FFFFF7AAFFA1
:100384000024ADF81440ADF816400C4B1A680492E2
:100394005B68039300F02CFA4FF6FF7204990598FA
:1003A40000F0A1F80194182300934FF6FF7322463E
:1003B4000349039800F074F9FEE700BFA41600088F
:1003C400AC16000882B00E4B9A6942F001029A61A1
:1003D4009A6902F001020092009ADA6942F08052AE
:1003E400DA61DB6903F080530193019B054A53688A
:1003F40023F0E06343F00073536002B0704700BF22
:10040400001002400000014010B586B000230293A2
:100414000393049305930268174B9A4201D006B0E4
:1004240010BD03F558439A6942F480429A619A696F
:1004340002F480420092009A9A6942F004029A619E
:100444009B6903F004030193019B4FF4007302932F
:100454000223039303230593084C02A9204600F0CA
:1004640069FB4FF48063029300230393049302A96E
:10047400204600F05FFBD2E700380140000801404D
:10048400FEE7FEE7FEE7FEE7FEE7704770477047CA
:1004940008B500F0CBFA08BD70470000FFF7FCFF79
:1004A4000B480C490C4A002302E0D458C4500433CE
:1004B400C4188C42F9D3094A094C002301E01360A3
:1004C4000432A242FBD300F0F9FFFFF74FFF70475D
:1004D400000000203C040020E84A00083C040020FE
:1004E400A8040020FEE72DE9F04383B001900091B9
:1004F4001646BDF80490BDF80670BDF80050BDF86E
:10050400028043462A463946484600F03FF908E04F
:10051400304600F01DF90134A4B2A542F8D80137E1
:10052400BFB2B84501D94C46F7E703B0BDE8F08344
:1005340010B582B001900C46BDF80400BDF8061059
:100544000B46024600F022F9204600F001F902B001
:1005540010BD00002DE9F04F87B005900192029381
:100564009DF840B09DF84480BDF814A04FEA5B06A6
:100574001BF00E0318BF012303EB1B130BFB03F348
:1005840003932039CBB20493BDF816100AEB5B0237
:1005940092B20BEB01039BB2013B013A9BB292B2C4
:1005A400504600F0F3F84FF000094D464FE0049B2D
:1005B40003EB4303364A02EB830313F80970002468
:1005C4001DE0344B049A03EB021313F80970F6E7A9
:1005D400049B03EB4303304A02EB031313F8097043
:1005E400EDE7029800F0B4F80135EDB2B5FBF6F38F
:1005F40006FB135313F0FF0344D00134E4B2072C79
:1006040021D8B8F1000F08D147FA04F313F0010F11
:10061400E7D0019800F09CF8E6E747FA04F313F0FA
:10062400010F2AD1BDF8143001339BB2ADF8143058
:10063400A3EB0A03B342E0D1ADF814A0BDF8163021
:100644000133ADF8163009F101091FFA89F9039B4A
:10065400994519D2BBF10C0FA9D0BBF1100FB0D042
:10066400BBF1180FB4D0BBF1200F0DD10B4B049A82
:1006740003EB821313F80970A1E701990598FFF7BA
:1006840057FFCFE71D46DEE707B0BDE8F08F00BF98
:10069400D0160008441B0008342100080433000865
:1006A4002DE9F04184B003900C4617461E469DF890
:1006B40028509DF82C800EE0CDF804800095334638
:1006C4003A460398FFF746FFBDF80C0000EB5500CF
:1006D400ADF80C00013421780029EDD104B0BDE857
:1006E400F081000038B5044600224021144800F08F
:1006F40041FB00250DE000222021124800F03AFBC6
:10070400012280210E4800F035FB6400E4B201357B
:10071400EDB2072D0DD800228021094800F02AFBF4
:1007240014F0800FE7D001222021064800F022FBBC
:10073400E6E701224021024800F01CFB38BD00BF5F
:10074400000C01400008014008B5FFF7CBFF08BDCD
:1007540010B50446000AFFF7C5FFE0B2FFF7C2FF79
:1007640010BD000038B50446074D002280212846FC
:1007740000F000FB2046FFF7B5FF01228021284648
:1007840000F0F8FA38BD00BF00080140F8B507468C
:100794000D4616461C462A20FFF7E4FF3846FFF7AD
:1007A400D7FF3046FFF7D4FF2B20FFF7DBFF2846A7
:1007B400FFF7CEFF2046FFF7CBFF2C20FFF7D2FF39
:1007C400F8BD000010B5094C00224021204600F07D
:1007D400D1FA0A2000F03CF901224021204600F021
:1007E400C9FA642000F034F910BD00BF00080140CC
:1007F40008B5FFF7E7FF1120FFF7B4FF782000F0FA
:1008040027F9B120FFF7AEFF0220FFF79DFF352047
:10081400FFF79AFF3620FFF797FFB220FFF7A2FFFA
:100824000220FFF791FF3520FFF78EFF3620FFF7F8
:100834008BFFB320FFF796FF0220FFF785FF3520DB
:10084400FFF782FF3620FFF77FFF0220FFF77CFFD0
:100854003520FFF779FF3620FFF776FFB420FFF746
:1008640081FF0320FFF770FFC020FFF77BFFA2206A
:10087400FFF76AFF0220FFF767FF8420FFF764FF9A
:10088400C120FFF76FFFC520FFF75EFFC220FFF70F
:1008940069FF0D20FFF758FF0020FFF755FFC32025
:1008A400FFF760FF8D20FFF74FFF2A20FFF74CFF73
:1008B400C420FFF757FF8D20FFF746FFEE20FFF718
:1008C40043FFC520FFF74EFF0A20FFF73DFF362008
:1008D400FFF748FFA820FFF737FFE020FFF742FFAC
:1008E4001220FFF731FF1C20FFF72EFF1020FFF727
:1008F4002BFF1820FFF728FF3320FFF725FF2C20BC
:10090400FFF722FF2520FFF71FFF2820FFF71CFF1A
:100914002820FFF719FF2720FFF716FF2F20FFF7E6
:1009240013FF3C20FFF710FF0020FFF70DFF03200B
:10093400FFF70AFF0320FFF707FF1020FFF704FF6C
:10094400E120FFF70FFF1220FFF7FEFE1C20FFF748
:10095400FBFE1020FFF7F8FE1820FFF7F5FE2D2010
:10096400FFF7F2FE2820FFF7EFFE2320FFF7ECFE4F
:100974002820FFF7E9FE2820FFF7E6FE2620FFF7F0
:10098400E3FE2F20FFF7E0FE3B20FFF7DDFE002013
:10099400FFF7DAFE0320FFF7D7FE0320FFF7D4FEAC
:1009A4001020FFF7D1FE3A20FFF7DCFE0520FFF709
:1009B400CBFE2920FFF7D6FE08BD000010B5044683
:1009C4000E4B18784FF47A73B3FBF0F30C4A1068AB
:1009D400B0FBF3F000F09AF868B90F2C01D90120AC
:1009E4000AE0002221464FF0FF3000F057F8054B93
:1009F4001C60002000E0012010BD00BF04000020A6
:100A0400000000200800002008B5074A136843F0DE
:100A140010031360032000F02FF80F20FFF7CEFF20
:100A2400FFF7D0FC002008BD00200240034A1168F3
:100A3400034B1B780B441360704700BFA0040020D5
:100A440004000020014B1868704700BFA004002078
:100A540038B50446FFF7F6FF0546B4F1FF3F02D070
:100A6400044B1B781C44FFF7EDFF401BA042FAD354
:100A740038BD00BF04000020074AD36823F4E063B4
:100A84001B041B0C000200F4E060034343F0BF634B
:100A940043F40033D360704700ED00E000B5194B18
:100AA400DB68C3F30223C3F1070CBCF1040F28BFB6
:100AB4004FF0040C03F1040EBEF1060F18D9033BEA
:100AC4004FF0FF3E0EFA0CFC21EA0C0199400EFA9D
:100AD40003F322EA0303194300280BDB0901C9B21B
:100AE40000F1604000F5614080F800135DF804FBFC
:100AF4000023E5E700F00F000901C9B2024B1954C5
:100B0400F4E700BF00ED00E014ED00E00138B0F1BF
:100B1400807F0BD24FF0E0235861054AF02182F820
:100B240023100020986107221A6170470120704742
:100B340000ED00E070B582B00024A446B0E0874D1B
:100B4400AA4210D007D9864DAA420CD005F58035AB
:100B5400AA4208D013E0A5F58015AA4203D005F5F2
:100B64007025AA4207D18A68002A62D0012A5BD084
:100B74004361082403E0A5F58015AA42F3D0BEF131
:100B8400FF0F58D80646BEF1FF0F56D84FEA8C0225
:100B940033680F25954023EA050304FA02F2134350
:100BA40033604B6813F0805F78D06E4B9A6942F0E3
:100BB40001029A619B6903F001030193019B4FEACF
:100BC4009C02951C684B53F825600CF003039D00B0
:100BD4000F23AB4026EA0306644B984233D003F557
:100BE4008063984200F0988003F58063984200F097
:100BF400958003F58063984200F0928003F580634A
:100C0400984200F08F8003F58063984219D0062340
:100C14001AE0CC68B3E7CC680434B0E7CC68083495
:100C2400ADE7CC680C34AAE703610824A7E70024E5
:100C3400A5E70424A3E7061DA5E7ACF1080292008A
:100C4400A6E7052300E00023AB4033430232464DC0
:100C540045F822304B6813F4801F65D0444A9368EA
:100C640043EA0E0393604B6813F4001F62D0404ABA
:100C7400D36843EA0E03D3604B6813F4003F5FD09C
:100C84003B4A536843EA0E0353604B6813F4803FB6
:100C94005CD0374A136843EA0E0313600CF1010C6D
:100CA4000A6832FA0CF357D0012303FA0CF302EA70
:100CB400030E33EA0202F1D14A68122A3FF63FAF2B
:100CC400122A3FF65CAF01A555F822F06B0B000821
:100CD400170C0008210C0008330C0008830B0008D3
:100CE400830B0008830B0008830B0008830B0008A8
:100CF400830B0008830B0008830B0008830B000898
:100D0400830B0008830B0008830B0008830B000887
:100D14001B0C0008270C0008012395E7022393E726
:100D2400032391E704238FE7114A936823EA0E0310
:100D3400936098E70E4AD36823EA0E03D3609BE7D7
:100D44000B4A536823EA0E0353609EE7084A13686C
:100D540023EA0E031360A1E702B070BD0000221065
:100D64000000311000100240000001400008014062
:100D7400000401400AB10161704709040161704730
:100D840082B0084B1B68084AA2FB03235B0A00FBE2
:100D940003F3019300BF019B5A1E0192002BF9D16A
:100DA40002B0704700000020D34D6210002800F00C
:100DB400F18170B582B00446036813F0010F2CD0A2
:100DC400994B5B6803F00C03042B1DD0964B5B68B6
:100DD40003F00C03082B12D06368B3F5803F41D0B5
:100DE400002B55D103F1804303F504331A6822F430
:100DF40080321A601A6822F480221A6037E08A4B23
:100E04005B6813F4803FE7D0874B1B6813F4003F03
:100E140003D06368002B00F0BF81236813F0020F36
:100E240075D0814B5B6813F00C0F5FD07E4B5B6811
:100E340003F00C03082B54D02369002B00F08A80A4
:100E44007A4B01221A60FFF7FDFD0546764B1B68BD
:100E540013F0020F75D1FFF7F5FD401B0228F5D9F9
:100E640003209EE1704A136843F48033136063687F
:100E740043B3FFF7E7FD05466B4B1B6813F4003FD4
:100E8400CBD1FFF7DFFD401B6428F5D9032088E1AF
:100E9400B3F5A02F09D0644B1A6822F480321A608B
:100EA4001A6822F480221A60E1E703F18043A3F573
:100EB4003C331A6842F480221A601A6842F4803281
:100EC4001A60D4E7FFF7BEFD0546574B1B6813F4C1
:100ED400003FA2D0FFF7B6FD401B6428F5D90320DC
:100EE4005FE1514B5B6813F4803FA5D14E4B1B6807
:100EF40013F0020F03D02369012B40F04F814A4ABB
:100F0400136823F0F803616943EAC103136023689B
:100F140013F0080F33D0A369002B5CD0434B01229C
:100F2400C3F88024FFF78EFD05463F4B5B6A13F040
:100F3400020F21D1FFF786FD401B0228F5D90320BB
:100F44002FE1394A136823F0F803616943EAC103C6
:100F54001360DCE7354B00221A60FFF773FD05468A
:100F6400314B1B6813F0020FD1D0FFF76BFD401B10
:100F74000228F5D9032014E10120FFF701FF2368BB
:100F840013F0040F00F09680274BDB6913F0805FA9
:100F940034D1254BDA6942F08052DA61DB6903F01F
:100FA40080530193019B0125214B1B6813F4807F1F
:100FB40026D0E368012B3DD0002B53D103F18043AD
:100FC40003F504331A6A22F001021A621A6A22F043
:100FD40004021A6233E0154B0022C3F88024FFF7A1
:100FE40031FD0546104B5B6A13F0020FC7D0FFF7C3
:100FF40029FD401B0228F5D90320D2E00025D3E7C0
:101004000B4A136843F480731360FFF71BFD064615
:10101400074B1B6813F4807FCBD1FFF713FD801BB4
:101024006428F5D90320BCE00010024000004242CD
:10103400007000405F4A136A43F001031362E368DF
:1010440033B3FFF7FFFC06465A4B1B6A13F0020F3B
:101054002FD1FFF7F7FC801B41F288339842F3D974
:1010640003209EE0052B09D0524B1A6A22F001029C
:101074001A621A6A22F004021A62E0E74D4B1A6AF5
:1010840042F004021A621A6A42F001021A62D6E7B6
:10109400FFF7D8FC0646474B1B6A13F0020F08D033
:1010A400FFF7D0FC801B41F288339842F3D9032028
:1010B40077E0E5B9E369002B72D03E4A526802F04A
:1010C4000C02082A56D0022B17D03B4B00221A667A
:1010D400FFF7B8FC0446374B1B6813F0007F47D07A
:1010E400FFF7B0FC001B0228F5D9032059E0314A70
:1010F400D36923F08053D361DCE72F4B00221A66B7
:10110400FFF7A0FC05462B4B1B6813F0007F06D0AD
:10111400FFF798FC401B0228F5D9032041E0236A1D
:10112400B3F5803F1AD023494B6823F47413226A21
:10113400606A024313434B601F4B01221A66FFF798
:1011440081FC04461B4B1B6813F0007F0ED1FFF794
:1011540079FC001B0228F5D9032022E0154A5368C4
:1011640023F40033A1680B435360DCE7002018E04C
:10117400002016E0012B16D00E4B5B6803F480317F
:10118400226A914211D103F47013626A93420ED120
:10119400002006E001207047012002E0012000E069
:1011A400002002B070BD0120FBE70120F9E7012017
:1011B400F7E700BF00100240000042420F4B5B689B
:1011C40003F00C02082A01D00D487047C3F3834290
:1011D4000C49885C13F4803F0BD0084B5B68C3F365
:1011E4004043094AD35C064A02FB00F0B0FBF3F02B
:1011F4007047064B03FB00F0704700BF001002402D
:1012040000127A00C44A0008D44A000800093D00CC
:10121400002800F0A08070B50D460446524B1B68B0
:1012240003F007038B420BD24F4A136823F00703E2
:101234000B431360136803F007038B4240F08D8067
:10124400236813F0020F17D013F0040F04D0474A99
:10125400536843F4E0635360236813F0080F04D029
:10126400424A536843F460535360404A536823F03E
:10127400F003A1680B435360236813F0010F31D0CE
:101284006368012B20D0022B25D0384A126812F053
:10129400020F64D035494A6822F0030213434B60BD
:1012A400FFF7D0FB0646314B5B6803F00C03626822
:1012B400B3EB820F16D0FFF7C5FB801B41F28833D6
:1012C4009842F0D9032045E0284A126812F4003FFE
:1012D400E0D101203EE0254A126812F0007FD9D106
:1012E400012037E0204B1B6803F00703AB420AD907
:1012F4001D4A136823F007032B431360136803F09C
:101304000703AB422DD1236813F0040F06D0174A0C
:10131400536823F4E063E1680B435360236813F0DC
:10132400080F07D0114A536823F46053216943EA34
:10133400C1035360FFF742FF0C4B5B68C3F3031315
:101344000B4AD35CD8400B4B18600B4B1868FFF763
:1013540035FB002070BD012070470120FAE7012011
:10136400F8E70120F6E700BF002002400010024029
:10137400B81600080000002008000020014B18687F
:10138400704700BF0000002008B5FFF7F7FF044BCB
:101394005B68C3F30223034AD35CD84008BD00BF93
:1013A40000100240C816000808B5FFF7E7FF044B19
:1013B4005B68C3F3C223034AD35CD84008BD00BFB3
:1013C40000100240C816000810B5044602681369EC
:1013D40023F44053C1680B431361836802691343C8
:1013E40042691A430168CB6823F4B05323F00C0319
:1013F4001343CB600268536923F4407381690B4340
:1014040053610268134B9A4220D0FFF7BDFF024696
:1014140002EB820202EB820263689B00B2FBF3F2EE
:101424000D48A0FB02314909642303FB11231B016E
:101434003233A0FB03235B0903F0F00202EB011239
:1014440003F00F03216813448B6010BDFFF7ACFF5A
:101454000246DDE7003801401F85EB5160B310B54B
:10146400044690F8413013B3242384F841302268B1
:10147400D36823F40053D3602046FFF7A5FF226806
:10148400136923F4904313612268536923F02A03F8
:1014940053612268D36843F40053D360002060642E
:1014A400202384F8413084F84230606310BD80F812
:1014B4004030FEF7A9FFD7E70120704770B50D4E05
:1014C4000D4D761BB61006D0002455F8043B0134AC
:1014D4009847A642F9D1094E094D00F0D5F8761B7C
:1014E400B61006D0002455F8043B01349847A642B0
:1014F400F9D170BDDC4A0008DC4A0008E44A00085F
:10150400DC4A0008830730B548D0541E002A3FD077
:101514000346CAB201E0013C3AD303F8012B9D070C
:10152400F9D1032C2DD9CDB245EA05250F2C45EA76
:10153400054536D9A4F1100222F00F0C03F1200E58
:10154400E6444FEA121C03F1100242E9045542E951
:10155400025510327245F8D10CF1010214F00C0F4F
:1015640003EB021204F00F0C13D0ACF1040323F0CC
:1015740003030433134442F8045B9342FBD10CF09D
:1015840003042CB1CAB21C4403F8012B9C42FBD1C6
:1015940030BD64461346002CF4D1F9E703461446E3
:1015A400BFE71A46A446E0E7024B13B1024800F035
:1015B40005B8704700000000CD150008002301465F
:1015C4001A46184600F01AB838B5084B084D5B1B8C
:1015D4009C1007D0043B1D44013C55F8043998473E
:1015E400002CF9D1BDE8384000F054B8E84A0008AE
:1015F400E44A0008704700BF704700BF2DE9F04778
:10160400DFF87CA00646DAF8000098460F469146BB
:10161400FFF7F0FF1B4B1B68D3F8484124B3656800
:101624001F2D26DC5EB96B1C0235DAF800006360FE
:1016340044F82570FFF7E0FF0020BDE8F0870123A0
:1016440004EB8501C1F88890D4F88821AB401A4393
:10165400022EC4F88821C1F80881E4D1D4F88C2181
:101664001343C4F88C31DEE703F5A674C3F848418C
:10167400D5E7DAF80000FFF7BFFF4FF0FF30DCE7F3
:1016840038040020D84A0008F8B500BFF8BC08BCEC
:101694009E467047F8B500BFF8BC08BC9E4670472C
:1016A400A00080003200320068656C6C6F206C63AF
:1016B40064000000000000000000000001020304B8
:1016C40006070809000000000102030400000000EE
:1016D40000000000000000000000040404040400F2
:1016E4000004000014140A000000000000000000C0
:1016F40000000A0A1F0A0A1F0A0A000000040E1545
:1017040005060C14150E0400000012150D152E2CE0
:101714002A1200000000040A0A36151529160000D2
:10172400020201000000000000000000100808048C
:101734000404040408081000020404080808080843
:101744000404020000000004150E0E15040000003D
:1017540000000008083E0808000000000000000027
:10176400000000000202010000000000003F000031
:101774000000000000000000000000000002000063
:1017840000201010080804040202010000000E11D9
:1017940011111111110E00000000040604040404C8
:1017A400040E000000000E1111080402011F0000C5
:1017B40000000E11100C1010110E00000000080C97
:1017C4000C0A091F081C000000001F01010F111062
:1017D400110E000000000C12010D1311110E000077
:1017E40000001E10080804040404000000000E1188
:1017F400110E1111110E000000000E111119161016
:1018040009060000000000000400000000040000BD
:1018140000000000000400000004040000001008A0
:101824000402020408100000000000003F003F0012
:101834000000000000000204081010080402000068
:1018440000000E11110804040004000000001C2212
:10185400292D2D1D221C0000000004040C0A0A1E60
:101864001233000000000F12120E1212120F0000A9
:1018740000001E1101010101110E000000000F12F1
:1018840012121212120F000000001F120A0E0A0296
:10189400121F000000001F120A0E0A0202070000B5
:1018A40000001C1201013911120C00000000331257
:1018B400121E12121233000000001F040404040458
:1018C400041F000000003E0808080808080809076B
:1018D400000037120A060A1212370000000007023D
:1018E40002020202223F000000003B1B1B1B1515D5
:1018F4001535000000003B1216161A1A12170000C4
:1019040000000E1111111111110E000000000F1230
:10191400120E02020207000000000E11111111172D
:10192400190E180000000F12120E0A1212370000CE
:1019340000001E1101060810110F000000001F1501
:1019440004040404040E00000000331212121212E4
:10195400120C000000003312120A0A0C04040000E6
:101964000000151515150E0A0A0A000000001B0ACE
:101974000A04040A0A1B000000001B0A0A0A0404E1
:10198400040E000000001F0908040402121F0000D6
:101994001C0404040404040404041C0000020204DF
:1019A40004040808081010000E08080808080808AD
:1019B40008080E00040A00000000000000000000F7
:1019C40000000000000000000000003F02040000CE
:1019D400000000000000000000000000000C121CC9
:1019E400123C000000030202020E1212120E00004A
:1019F40000000000001C1202120C0000001810105D
:101A0400101C1212123C000000000000000C121EF8
:101A1400021C000000182404041E0404041E000018
:101A240000000000003C120C021C221C00030202F5
:101A3400020E12121237000000040400000604040F
:101A4400040E000000080800000C08080808080735
:101A540000030202021A0A060A1300000007040423
:101A640004040404041F000000000000000F151506
:101A74001515000000000000000F121212370000BC
:101A840000000000000C1212120C00000000000004
:101A9400000F1212120E020700000000001C1212A6
:101AA400121C103800000000001B06020207000090
:101AB40000000000001E020C101E000000000004C4
:101AC400041E0404041C000000000000001B121289
:101AD400123C000000000000001B0A0A040400007D
:101AE400000000000015150E0A0A000000000000A6
:101AF400001B0A040A1B000000000000003312123D
:101B04000C08040300000000001E0804041E00006A
:101B140018080808080C0808080818000808080825
:101B2400080808080808080806040404040804044B
:101B34000404060016090000000000000000000074
:101B44000000000000000000000000000000000091
:101B54000000000808080808080800001818000019
:101B640000486C2412000000000000000000000087
:101B74000000002424247F1212127F12121200008B
:101B84000000081C2A2A0A0C1828282A2A1C0808DB
:101B940000000022251515152A585454542200001B
:101BA4000000000C1212120A76252911916E000011
:101BB400000606040300000000000000000000000E
:101BC40000402010100808080808081010204000E1
:101BD4000002040808101010101010080804020075
:101BE4000000000008086B1C1C6B080800000000C3
:101BF40000000000080808087F0808080800000022
:101C040000000000000000000000000006060403BD
:101C14000000000000000000FE00000000000000C2
:101C240000000000000000000000000006060000A4
:101C34000000804040202010100808040402020024
:101C4400000000182442424242424242241800004A
:101C5400000000080E08080808080808083E0000EC
:101C64000000003C4242422020100804427E000052
:101C74000000003C4242201820404042221C000048
:101C8400000000203028242422227E202078000016
:101C94000000007E0202021A26404042221C00007C
:101CA400000000382402021A26424242241800008E
:101CB4000000007E2222101008080808080800000E
:101CC4000000003C4242422418244242423C0000AC
:101CD400000000182442424264584040241C000082
:101CE4000000000000001818000000001818000090
:101CF40000000000000000080000000000080804C4
:101D040000000040201008040204081020400000D5
:101D14000000000000007F0000007F0000000000C1
:101D240000000002040810204020100804020000F3
:101D34000000003C424246402010100018180000E9
:101D44000000001C225A555555552D42221C0000F6
:101D54000000000808181414243C224242E7000042
:101D64000000001F2222221E22424242221F0000A3
:101D74000000007C4242010101010142221C0000DA
:101D84000000001F2242424242424242221F0000FF
:101D94000000003F4212121E12120242423F000093
:101DA4000000003F4212121E12120202020700003B
:101DB4000000003C2222010101712122221C0000AA
:101DC400000000E7424242427E42424242E70000B3
:101DD4000000003E0808080808080808083E00003B
:101DE4000000007C10101010101010101010110FB3
:101DF4000000007722120A0E0A1212222277000033
:101E0400000000070202020202020202427F0000F6
:101E140000000077363636362A2A2A2A2A6B000032
:101E2400000000E346464A4A5252526262470000AA
:101E34000000001C2241414141414141221C00005B
:101E44000000003F424242423E02020202070000FA
:101E54000000001C2241414141414D53321C6000AD
:101E64000000003F4242423E1212222242C70000BA
:101E74000000007C4242020418204042423E00001E
:101E84000000007F4908080808080808081C00002A
:101E9400000000E74242424242424242423C0000C9
:101EA400000000E742422224241414180808000009
:101EB4000000006B49494949555536222222000049
:101EC400000000E7422424181818242442E70000E4
:101ED400000000772222141408080808081C0000D7
:101EE4000000007E2120101008040442423F00003C
:101EF400007808080808080808080808080878008E
:101F040000000202040408080810102020204040A9
:101F1400001E1010101010101010101010101E00C1
:101F24000038440000000000000000000000000031
:101F3400000000000000000000000000000000FF9E
:101F4400000608000000000000000000000000007F
:101F5400000000000000003C4278444242FC0000C3
:101F6400000000030202021A26424242261A00001E
:101F7400000000000000003844020202443800005F
:101F840000000060404040784442424264D800006F
:101F9400000000000000003C427E0202423C0000BF
:101FA400000000F08808087E08080808083E0000C1
:101FB400000000000000007C22221C023C42423C43
:101FC400000000030202023A4642424242E7000095
:101FD4000000000C0C00000E08080808083E000071
:101FE4000000003030000038202020202020221E55
:101FF4000000000302020272120A16122277000085
:102004000000000E0808080808080808083E000038
:10201400000000000000007F9292929292B70000AC
:10202400000000000000003B4642424242E700003C
:10203400000000000000003C42424242423C0000DA
:10204400000000000000001B26424242221E02073C
:10205400000000000000007844424242447840E01E
:1020640000000000000000774C040404041F00007A
:10207400000000000000007C42023C40423E0000A0
:10208400000000000008083E0808080808300000A6
:1020940000000000000000634242424262DC000093
:1020A40000000000000000E7422424140808000097
:1020B40000000000000000EB4949555522220000B1
:1020C400000000000000007624181818246E000098
:1020D40000000000000000E7422424141808080748
:1020E400000000000000007E22100808447E00006A
:1020F40000C0202020202010202020202020C000EC
:1021040010101010101010101010101010101010CB
:102114000006080808080810080808080808060047
:102124000C32C200000000000000000000000000AB
:10213400000000000000000000000000000000009B
:10214400000000000000000000000000000000008B
:10215400000000000000000000000000000000007B
:1021640000000000000000006000600060006000EB
:10217400600060006000400020002000200000009B
:10218400000000006000600060000000000000002B
:1021940000000000600660063003980188004400D7
:1021A400000000000000000000000000000000002B
:1021B400000000000000000000000000000000001B
:1021C40000000000000000001002100210021002C3
:1021D400FE07FE0708020801080108010801FE07BE
:1021E400FE070401040104010401000000000000D2
:1021F40000000000000040004000F00158034C03C0
:10220400CC034C0058007000E000C001C001400342
:102214004C035C034C034801F00040004000000004
:1022240000000000000000000E010A01910091006E
:102234009100510051003A00AE03A0025004500432
:102244004804480448048402840300000000000099
:10225400000000000000000038006C006C006C00FE
:102264006C006C002C0098071C011A013301330127
:102274006301E300C308C6093C0700000000000036
:10228400000000000C001C001000100008000400F6
:10229400000000000000000000000000000000003A
:1022A400000000000000000000000000000000002A
:1022B40000000000000400020001800080004000D3
:1022C40040002000200020002000200020002000EA
:1022D4004000400080008000000100020004000073
:1022E400000000000200040008001000100020009C
:1022F40020004000400040004000400040004000FA
:10230400200020001000100008000400020000005B
:102314000000000000000000000000004000C000B9
:102324004000460C4E0FD001F0015E0F460C4000F9
:102334004000400000000000000000000000000019
:102344000000000000000000000000000000400049
:102354004000400040004000FE0F400040004000AC
:1023640040004000000000000000000000000000E9
:102374000000000000000000000000000000000059
:102384000000000000000000000000000000000049
:10239400000000000C001C001000100008000400E5
:1023A4000000000000000000000000000000000029
:1023B4000000000000000000FE0700000000000014
:1023C4000000000000000000000000000000000009
:1023D40000000000000000000000000000000000F9
:1023E40000000000000000000000000000000000E9
:1023F400000000001C001C001C0000000000000085
:1024040000000000000400060002000300010001B7
:102414008000800040004000600020002000100088
:102424001000080008000C00040006000200000070
:1024340000000000000000000000F00098010C0300
:102444000C03060606060606060606060606060625
:1024540006060C030C039801F000000000000000C5
:102464000000000000000000000040007C0060004C
:102474006000600060006000600060006000600058
:102484006000600060006000FC03000000000000C9
:1024940000000000000000000000F80084010203B6
:1024A40006030603000300018001C0006000200051
:1024B4001000080204020602FE03000000000000EF
:1024C400000000000000000000007800C600860143
:1024D400860180018001C0007000800100010003BA
:1024E4000003060306038601F80000000000000054
:1024F4000000000000000000000080018001C00115
:10250400A001A00190018801880184018201FE0FCD
:102514008001800180018001E007000000000000CC
:1025240000000000000000000000FC0304000400A0
:10253400040004000400F4008C01040300030003FD
:102544000603060382018401F80000000000000075
:1025540000000000000000000000E00118030C036C
:102564000C0004000600E60116030E060606060625
:10257400060604060C021803F00000000000000028
:1025840000000000000000000000F8070C06040230
:102594000401000100018000800040004000400070
:1025A4006000600060006000600000000000000047
:1025B40000000000000000000000F8010C03060603
:1025C400060606060C021C03F000C8010C030606EE
:1025D4000606060606060C03F001000000000000D3
:1025E40000000000000000000000F0000C010C03DB
:1025F400060206060606060606078C067806000688
:10260400000300030C018C017800000000000000AE
:1026140000000000000000000000000000000000B6
:1026240000000000E000E000E00000000000000006
:1026340000000000E000E000E000000000000000F6
:102644000000000000000000000000000000000086
:1026540000000000600060000000000000000000B6
:102664000000000000006000600040002000200026
:1026740000000000000000000004000200018000CF
:102684004000200010000800040008001000200092
:10269400400080000001000200040000000000006F
:1026A4000000000000000000000000000000000026
:1026B40000000000FE07000000000000FE0700000C
:1026C4000000000000000000000000000000000006
:1026D40000000000000000000400080010002000BA
:1026E400400080000001000200040002000180009C
:1026F400400020001000080004000000000000005A
:1027040000000000000000000000E0031806040CB4
:10271400040C0C0C0C0C000780014000400040002D
:1027240000000000E000E000E00000000000000005
:102734000000000000000000E00018030C02CC05BB
:1027440064056605A605B604B604B604B604B60266
:10275400E4010C040C021803F00000000000000067
:102764000000000000000000000060006000500055
:10277400D00090009000880088010801F80104034B
:1027840004030402020202060F0F0000000000000E
:1027940000000000000000000000FE008C030C0399
:1027A4000C030C030C038C01FC000C030C020C0640
:1027B4000C060C060C060C03FE01000000000000D1
:1027C40000000000000000000000E00318030C06F5
:1027D4000C040404060006000600060006000600B9
:1027E40006040C040C021803F000000000000000B2
:1027F400000000000000000000007F008C010C03BA
:102804000C030C060C060C060C060C060C060C0637
:102814000C060C030C038C017F0000000000000078
:1028240000000000000000000000FF03060306048F
:102834000604060086008600FE00860086008600E8
:102844000600060406040602FF0300000000000060
:1028540000000000000000000000FF03060306045F
:102864000604060086008600FE00860086008600B8
:1028740006000600060006001F000000000000001D
:1028840000000000000000000000F00018010C022D
:102894000C0204020600060006000600C60F06032A
:1028A40006030C030C031803F000000000000000F2
:1028B400000000000000000000000F0F06060606DE
:1028C4000606060606060606FE07060606060606AB
:1028D40006060606060606060F0F000000000000A6
:1028E40000000000000000000000FC036000600025
:1028F40060006000600060006000600060006000D4
:102904006000600060006000FC0300000000000044
:1029140000000000000000000000F807C000C00034
:10292400C000C000C000C000C000C000C000C000A3
:10293400C000C000C000C000C000C60066003C006B
:1029440000000000000000000000CF038601C60064
:1029540046002600160036002E006E004600C60013
:1029640086008601060106038F07000000000000B0
:10297400000000000000000000001F000600060028
:102984000600060006000600060006000600060013
:102994000600060406040602FF030000000000000F
:1029A4000000000000000000000007078603860303
:1029B4008E038E034E034E034A035A035A033A030B
:1029C40032033203320312038707000000000000C1
:1029D400000000000000000000008E0F0C021C022A
:1029E4001C0234023402640264024402C4028402FB
:1029F40084038403040304031F0200000000000096
:102A040000000000000000000000F00098010C032A
:102A14000C02060606060606060606060606060650
:102A240006060C020C039801F000000000000000F0
:102A340000000000000000000000FF00060306067E
:102A440006060606060606068603FE0006000600BF
:102A540006000600060006001F000000000000003B
:102A640000000000000000000000F00098010C03CA
:102A74000C020606060606060606060606060606F0
:102A840076064C02CC039801F00080070003000096
:102A940000000000000000000000FF01060306061D
:102AA4000606060606060603FE004600C600860065
:102AB40086010603060306060F0E00000000000050
:102AC40000000000000000000000F8020C030602F1
:102AD400060206000E003C00F800E0038003000735
:102AE4000206020606060C03F001000000000000C6
:102AF40000000000000000000000FE0762046108FE
:102B040061086000600060006000600060006000B8
:102B14006000600060006000F80100000000000038
:102B2400000000000000000000001E070C020C0260
:102B34000C020C020C020C020C020C020C020C0221
:102B44000C020C020C021801F0000000000000004E
:102B5400000000000000000000000F07060204014E
:102B640004010C010C0188008800980098005000B2
:102B74005000700030002000200000000000000021
:102B840000000000000000000000F70E6204420490
:102B94004604460464026402E402E4029C029C01CA
:102BA4009801980188018800880000000000000056
:102BB400000000000000000000009E070C01080156
:102BC40018019000B0006000200060006000D00098
:102BD40090008801080104038E0700000000000033
:102BE400000000000000000000000F0F06040402B3
:102BF4000C0208011801B800B00070006000600009
:102C04006000600060006000F80100000000000047
:102C140000000000000000000000FC070C02060396
:102C240002018001800040004000200020001000CC
:102C3400180008040C040402FE0300000000000055
:102C440000000000E00320002000200020002000FD
:102C54002000200020002000200020002000200070
:102C6400200020002000200020002000E0030000BD
:102C74000000000000000000040004000800080038
:102C84001000100010002000200040004000C00090
:102C94008000800000010001000200020002000424
:102CA400000000007C004000400040004000400064
:102CB4004000400040004000400040004000400010
:102CC4004000400040004000400040007C00000004
:102CD40000006000900008010000000000000000F7
:102CE40000000000000000000000000000000000E0
:102CF40000000000000000000000000000000000D0
:102D040000000000000000000000000000000000BF
:102D140000000000000000000000000000000000AF
:102D24000000000000000000000000000000FF0F91
:102D34000000000018006000000000000000000017
:102D4400000000000000000000000000000000007F
:102D5400000000000000000000000000000000006F
:102D6400000000000000000000000000000000005F
:102D740000000000F0010C030C030003E0031C033B
:102D84000E03060306038E0B7C0E000000000000F9
:102D9400000000000000000008000E000C000C0001
:102DA4000C000C00CC013C031C060C060C060C06A3
:102DB4000C060C060C021C03E401000000000000D9
:102DC40000000000000000000000000000000000FF
:102DD40000000000F0008C018C0186010600060052
:102DE400060006020C020C01F000000000000000C6
:102DF40000000000000000000002C0030003000304
:102E04000003000378038C030C0306030603060384
:102E14000603060304038C07780100000000000089
:102E2400000000000000000000000000000000009E
:102E340000000000E001180308020C060C06FC0761
:102E44000C000C0018041802E0010000000000004F
:102E540000000000000000000000C003600630060F
:102E640030003000FE01300030003000300030000F
:102E74003000300030003000FC0100000000000091
:102E8400000000000000000000000000000000003E
:102E940000000000F007D8068C018C018C01980119
:102EA400F8000C00FC00CC03060306038E03F800B4
:102EB400000000000000000008000E000C000C00E0
:102EC4000C000C00EC011C030C030C030C030C039E
:102ED4000C030C030C030C039E070000000000000D
:102EE400000000000000000000006000600000001E
:102EF400000040007C006000600060006000600032
:102F04006000600060006000FC030000000000003E
:102F140000000000000000000000C001C00100002B
:102F240000000001F0018001800180018001800126
:102F3400800180018001800180018001CC007C003F
:102F4400000000000000000008000E000C000C004F
:102F54000C000C008C038C008C004C006C005C009A
:102F64008C008C010C010C039E0700000000000083
:102F7400000000000000000040007C0060006000D1
:102F8400600060006000600060006000600060003D
:102F94006000600060006000FC03000000000000AE
:102FA400000000000000000000000000000000001D
:102FB400000000003707EE0666066606660666062B
:102FC4006606660666066606FF0F0000000000003F
:102FD40000000000000000000000000000000000ED
:102FE40000000000EE011C030C030C030C030C0393
:102FF4000C030C030C030C039E07000000000000EC
:1030040000000000000000000000000000000000BC
:1030140000000000F00098010C03060606060606F0
:10302400060606060C030C03F00000000000000076
:10303400000000000000000000000000000000008C
:1030440000000000EE011C030C060C060C060C0626
:103054000C060C060C031C03EC010C000C003E00D7
:10306400000000000000000000000000000000005C
:103074000000000078028C030C0306030603060319
:103084000603060304038C03780300030003C0074C
:10309400000000000000000000000000000000002C
:1030A400000000009F035806380618001800180096
:1030B4001800180018001800FF00000000000000AD
:1030C40000000000000000000000000000000000FC
:1030D40000000000F0031C030C020C023800F00096
:1030E400C003040304038C03FC010000000000007F
:1030F400000000000000000000000000200020008C
:1031040030003000FE01300030003000300030006C
:103114003000300030023002E00100000000000006
:10312400000000000000000000000000000000009B
:10313400000008028E030C030C030C030C030C03A5
:103144000C030C030C039C07780100000000000032
:10315400000000000000000000000000000000006B
:10316400000000001E070C0208010801180190006D
:10317400B000B0006000600020000000000000000B
:10318400000000000000000000000000000000003B
:1031940000000000F70E6204460464026402EC02BC
:1031A4009C019801980198010800000000000000AB
:1031B400000000000000000000000000000000000B
:1031C40000000000BC0718011001B000600060009E
:1031D400E0009000080108039E07000000000000C2
:1031E40000000000000000000000000000000000DB
:1031F400000000009E0708010801080190009000EB
:10320400B0006000600060002000200024001C006A
:1032140000000000000000000000000000000000AA
:1032240000000000FC018401C40044006000200090
:103234003000180208020C03FC010000000000002A
:1032440000000000000380008000800080008000F7
:10325400800080008000400020004000800080004A
:103264008000800080008000800080000003000057
:10327400400040004000400040004000400040004A
:10328400400040004000400040004000400040003A
:10329400400040004000400040004000400040002A
:1032A400000000000C0010001000100010001000BE
:1032B400100010001000200040002000100010003A
:1032C4001000100010001000100010000C0000008E
:1032D40000001C002204C20480030000000000005F
:1032E40000000000000000000000000000000000DA
:1032F40000000000000000000000000000000000CA
:1033040000000000000000000000000000000000B9
:1033140000000000000000000000000000000000A9
:103324000000000000000000000000000000000099
:103334000000000000000000000000000000000089
:1033440000000000000000000000C001C001C00136
:10335400C001C001C001C001800080008000800065
:103364008000800080000000000000000000800158
:10337400C003C00380010000000000000000000042
:10338400000000000000E01CE01CF01E700E380776
:103394001803080184000000000000000000000081
:1033A4000000000000000000000000000000000019
:1033B4000000000000000000000000000000000009
:1033C4000000000000000000000000002010201099
:1033D400201020102010FE7FFE7F10081008100817
:1033E4001008100810081008FE7FFE7F0804080467
:1033F40008040804080400000000000000000000A5
:10340400000000000000000000010001C007601976
:10341400103118311839183938017001E001C0032E
:103424008007000F001D003900311C311C310C31A4
:103434000C11180DE007000100010001000000005C
:103444000000000000000000000000001C103618FE
:103454006308630C63046304630263026301361D3F
:103464009C37802280634063406320632063306321
:1034740010221836081C00000000000000000000A4
:10348400000000000000000000000000F0009801AF
:103494008C018C018C018C018C00CC007800183ECE
:1034A4001C083608320863046304C304C30383435B
:1034B40006438E26781C0000000000000000000077
:1034C4000000000000001C003C003C003000300004
:1034D40010000C00060000000000000000000000C6
:1034E40000000000000000000000000000000000D8
:1034F40000000000000000000000000000000000C8
:103504000000000000000040002000100008000C33
:103514000004000600030003000380018001800111
:103524008001800180018001800100030003000309
:1035340000060006000C00080010002000400000F7
:103544000000000000000200040008001000300029
:1035540020006000C000C000C00080018001800124
:1035640080018001800180018001C000C000C00092
:103574006000600030001000080004000200000039
:103584000000000000000000000000000000000037
:1035940000018003800300011C713C79783DC00761
:1035A4000001C007783D3C791C7100018003800351
:1035B4008001000000000000000000000000000086
:1035C40000000000000000000000000000000000F7
:1035D40000000001000100010001000100010001E0
:1035E400FC7F000100010001000100010001000155
:1035F40000000000000000000000000000000000C7
:1036040000000000000000000000000000000000B6
:1036140000000000000000000000000000000000A6
:103624000000000000000000000000000000000096
:103634001C003C003C003000300010000C00060070
:103644000000000000000000000000000000000076
:103654000000000000000000000000000000000066
:10366400FE7F0000000000000000000000000000D9
:103674000000000000000000000000000000000046
:103684000000000000000000000000000000000036
:103694000000000000000000000000000000000026
:1036A40000000000000000000000000000001800FE
:1036B4003C003C0018000000000000000000000076
:1036C40000000000000000400060002000300010F6
:1036D40000180008000C00040006000200030001AA
:1036E40080018000C0004000600020003000100015
:1036F400180008000C00040006000200000000008E
:10370400000000000000000000000000C007600C82
:1037140030181830183018200C600C600C600C60E5
:103724000C600C600C600C600C60182018301830B1
:103734003018600CC007000000000000000000000A
:1037440000000000000000000000000000018001F3
:10375400F8018001800180018001800180018001E5
:10376400800180018001800180018001800180014D
:103774008001C003F81F00000000000000000000EA
:10378400000000000000000000000000E007101C22
:103794000818043004300C300C30003000180008D5
:1037A40000040002000180004000202010200820B6
:1037B4000430FC1FFC1F000000000000000000009B
:1037C400000000000000000000000000E003180EEC
:1037D4000C0C0C180C180C180018000C0006C00374
:1037E400000E00180010003000300C300C300C10AB
:1037F4000C18180CE003000000000000000000009A
:10380400000000000000000000000000000C000E9A
:10381400000E000F800E800E400E600E200E100E63
:10382400100E080E040E040EFE7F000E000E000E95
:10383400000E000E000EC07F00000000000000001B
:10384400000000000000000000000000F03FF03F16
:1038540010001000100008000800C807280C1818F1
:10386400081000300030003000300C300C300418E8
:103874000418080CF0030000000000000000000021
:10388400000000000000000000000000800FC010D5
:10389400203010301800180008000C008C0F6C1831
:1038A4003C301C600C600C600C600C6018601820CC
:1038B40030306018C0070000000000000000000065
:1038C400000000000000000000000000F83FF83F86
:1038D4001C100C0804080404000400020002000187
:1038E40000010001800080008000C000C000C00012
:1038F400C000C000C0000000000000000000000084
:10390400000000000000000000000000E007300C90
:1039140018180C300C300C301C3038187008E007C4
:10392400B007180E0C1C0638063006300630063078
:103934000C18180CE0030000000000000000000058
:10394400000000000000000000000000E003180474
:103954000C080C18061006300630063006300638FF
:103964000C3C1836F03100300018001800180C0C0C
:103974000C060C03F0010000000000000000000031
:103984000000000000000000000000000000000033
:10399400000000000000000000008001C003C0031C
:1039A4008001000000000000000000000000800111
:1039B400C003C003800100000000000000000000FC
:1039C40000000000000000000000000000000000F3
:1039D40000000000000000000000C000C000000063
:1039E40000000000000000000000000000000000D3
:1039F4000000C000C00080008000400040000000C3
:103A0400000000000000000000000020001000087A
:103A14000004000600038001C000600030001800AC
:103A24000C00180030006000C00080010003000694
:103A34000004000800100020000000000000000046
:103A44000000000000000000000000000000000072
:103A540000000000000000000000FE7F00000000E5
:103A6400000000000000FE7F0000000000000000D5
:103A74000000000000000000000000000000000042
:103A84000000000000000000000004000800100016
:103A940020006000C000800100030006000C001834
:103AA40000300018000C000600038001C000600014
:103AB40020001000080004000000000000000000C6
:103AC40000000000000000000000C00730180830AB
:103AD40008600C601C601C601C600030001C000648
:103AE4000001800080008000800000000000800150
:103AF400C003C003800100000000000000000000BB
:103B0400000000000000000000000000C007601872
:103B1400103018200C2F8C4D864CC64CC64C664C6D
:103B240066446644662666266615CC1C0C4008204E
:103B340018303018C007000000000000000000002A
:103B4400000000000000000000000001C001C001EE
:103B5400C001400160032003200320033006100647
:103B640010061006F80F080C080C080C0C0C0418AE
:103B7400041806181F7C000000000000000000006C
:103B8400000000000000000000000000FE07181CF8
:103B9400183818301830183018301818180CF8075E
:103BA4001818183018201860186018601860186009
:103BB40018301818FE0F000000000000000000007C
:103BC400000000000000000000000000C027603872
:103BD400103018200C400C400400060006000600BB
:103BE400060006000600060006000C400C400C20EF
:103BF40018303018C007000000000000000000006A
:103C0400000000000000000000000000FE03180E89
:103C140018181830183018301860186018601860B8
:103C24001860186018601860186018301830181080
:103C34001818180EFE030000000000000000000029
:103C4400000000000000000000000000FE3F1830EB
:103C5400182018601840180018081808180CF80FD5
:103C6400180C1808180818001800180018401840F4
:103C740018201830FE3F0000000000000000000083
:103C8400000000000000000000000000FE7F18702B
:103C9400184018C018801800181018101818F81FA9
:103CA4001818181018101800180018001800180018
:103CB400180018007E000000000000000000000052
:103CC400000000000000000000000000C013701C91
:103CD400101018100C200C2004000600060006002A
:103CE4000600060006FC063006300C300C30183096
:103CF40018303008C0070000000000000000000079
:103D04000000000000000000000000003F7E0C18CE
:103D14000C180C180C180C180C180C180C180C187F
:103D2400FC1F0C180C180C180C180C180C180C1878
:103D34000C180C183F7E000000000000000000007A
:103D4400000000000000000000000000F81F8001D7
:103D54008001800180018001800180018001800157
:103D64008001800180018001800180018001800147
:103D740080018001F81F0000000000000000000026
:103D8400000000000000000000000000E07F0006CA
:103D940000060006000600060006000600060006EF
:103DA40000060006000600060006000600060006DF
:103DB40000060006000600060E060E038E01FC0037
:103DC4000000000000000000000000007E7C1818C5
:103DD4001808180418061802180198019801D80147
:103DE400B803380318071806180E180C181C1818EE
:103DF400183018307EFC00000000000000000000B5
:103E04000000000000000000000000007E00180018
:103E140018001800180018001800180018001800DE
:103E2400180018001800180018001800184018404E
:103E340018201830FE3F00000000000000000000C1
:103E44000000000000000000000000001FF81C3803
:103E54001C381C381C3C3434343434343436743216
:103E64006432643264326431C431C431C431C43024
:103E7400C43084309FFC00000000000000000000FB
:103E84000000000000000000000000001F7C1C1067
:103E94003C103410341074106410E410C410C411B5
:103EA40084118413041304170416041E041C041C34
:103EB400041C04181F18000000000000000000008B
:103EC400000000000000000000000000C003300CEF
:103ED400181808100C300C30066006600660066086
:103EE400066006600660066006600C200C30081050
:103EF4001818300CC003000000000000000000008F
:103F0400000000000000000000000000FE0F181870
:103F14001830186018601860186018601830181885
:103F2400F80F1800180018001800180018001800DE
:103F3400180018007E0000000000000000000000CF
:103F4400000000000000000000000000C003300C6E
:103F540018180C100C300C20066006600660066011
:103F640006600660066006600660E4612C331C325D
:103F74001816300EC007004C007C0038000000000A
:103F8400000000000000000000000000FE07181CF4
:103F9400183818301830183018301818180CF8075A
:103FA40098031803180718061806180E180C180C8E
:103FB400181C18187E7800000000000000000000A3
:103FC400000000000000000000000000E02730387E
:103FD40018300C200C200C000C0018007800E003B2
:103FE400800F001E003800700060046004600860E8
:103FF40018303818C80F000000000000000000004E
:10400400000000000000000000000000FC3F8C21C4
:1040140084618241824180018001800180018001AC
:104024008001800180018001800180018001800184
:1040340080018001E0070000000000000000000093
:104044000000000000000000000000003F7C0C1095
:104054000C100C100C100C100C100C100C100C107C
:104064000C100C100C100C100C100C100C100C106C
:1040740008083804E003000000000000000000000D
:104084000000000000000000000000003EF81820BE
:1040940018201820301030103010301060086008DC
:1040A4006008E00CC004C004C004800380038003E3
:1040B4008003000100010000000000000000000077
:1040C400000000000000000000000000DFF3866133
:1040D400862186218C210C218C238C138C138C1328
:1040E4004C1358125816580E380E380E380E300C21
:1040F4001004100410040000000000000000000080
:104104000000000000000000000000007E3E1808CF
:1041140038083004300470026002E001C001C001BC
:10412400800180034003400720062006100C100C79
:10413400081808183E7C0000000000000000000081
:104144000000000000000000000000007E7C1C1045
:10415400181018083008300C700460046002C002A3
:10416400C002C001800180018001800180018001C2
:1041740080018001E0070000000000000000000052
:10418400000000000000000000000000F83F1818C4
:104194000818040C040E00060007000380038001C5
:1041A400C001C000E000600070003000382018201A
:1041B4001C100C18FE1F000000000000000000008E
:1041C400000000000000C03F4000400040004000EC
:1041D40040004000400040004000400040004000DB
:1041E40040004000400040004000400040004000CB
:1041F40040004000400040004000C03F000000007C
:104204000000000000000000000008001800180072
:10421400100030002000600060004000C0008000FA
:104224008001800100010003000200060006000472
:10423400000C0008001800180010003000200000D6
:10424400000000000000FC03000200020002000263
:10425400000200020002000200020002000200024A
:10426400000200020002000200020002000200023A
:1042740000020002000200020002FC030000000031
:104284000000000000008007C00620081010000095
:10429400000000000000000000000000000000001A
:1042A400000000000000000000000000000000000A
:1042B40000000000000000000000000000000000FA
:1042C40000000000000000000000000000000000EA
:1042D40000000000000000000000000000000000DA
:1042E40000000000000000000000000000000000CA
:1042F4000000000000000000000000000000FFFFBC
:104304000000000000007800C00000010000000070
:104314000000000000000000000000000000000099
:104324000000000000000000000000000000000089
:104334000000000000000000000000000000000079
:104344000000000000000000000000000000000069
:1043540000000000000000000000F00318060C0C30
:104364000C0C000C800F700C1C0C0C0C060C060CB6
:10437400064C0C4FF838000000000000000000005C
:104384000000000000000000000010001E001800E3
:1043940018001800180018001800180FD818383022
:1043A4003860186018601860186018601860182069
:1043B40038307818C8070000000000000000000032
:1043C40000000000000000000000000000000000E9
:1043D40000000000000000000000C007700C181866
:1043E40018180C180C000C000C000C000C201820E1
:1043F40018103008C0070000000000000000000092
:10440400000000000000000000000010001E001862
:1044140000180018001800180018E01B301C1818A9
:1044240018180C180C180C180C180C180C18081860
:10443400181C307AE00900000000000000000000B1
:104444000000000000000000000000000000000068
:1044540000000000000000000000C007300C181825
:1044640008100C300C30FC3F0C000C000C00182021
:1044740018107018C00700000000000000000000C1
:10448400000000000000000000000000003E80C3A7
:1044940080C0C0C0C000C000C000FC1FC000C0007D
:1044A400C000C000C000C000C000C000C000C00008
:1044B400C000C000F80F0000000000000000000071
:1044C40000000000000000000000000000000000E8
:1044D40000000000000000000000C077306C1018DD
:1044E4001818181818181018300CF00718001800AD
:1044F400F00FF03F08700C600C600C603838E00F6F
:104504000000000000000000000010001E00180061
:1045140018001800180018001800980FD818383020
:104524001830183018301830183018301830183047
:10453400183018307EFC000000000000000000006D
:104544000000000000000000000000008003800361
:1045540080030000000000000001F80180018001D8
:10456400800180018001800180018001800180013F
:1045740080018001F81F000000000000000000001E
:1045840000000000000000000000000000380038B7
:1045940000380000000000000010801F0018001800
:1045A4000018001800180018001800180018001847
:1045B40000180018001800180018180C1806F0034A
:1045C4000000000000000000000010001E001800A1
:1045D40018001800180018001800183E180C1806C7
:1045E400180318019801D801380318071806180C85
:1045F400181C18187E7C0000000000000000000059
:10460400000000000000000000000001F80180012B
:10461400800180018001800180018001800180018E
:10462400800180018001800180018001800180017E
:1046340080018001F81F000000000000000000005D
:104644000000000000000000000000000000000066
:1046540000000000000000000800EE1C9C338C31B8
:104664008C318C318C318C318C318C318C318C315E
:104674008C318C31DE7B0000000000000000000063
:104684000000000000000000000000000000000026
:10469400000000000000000010001E0FD818383081
:1046A40018301830183018301830183018301830C6
:1046B400183018307EFC00000000000000000000EC
:1046C40000000000000000000000000000000000E6
:1046D40000000000000000000000C007701C103043
:1046E40018300C600C600C600C600C600C601830AE
:1046F40018303018C007000000000000000000005F
:1047040000000000000000000000000000000000A5
:10471400000000000000000010009E0F5818383000
:104724001820186018601860186018601860183035
:1047340038307818980718001800180018007E0000
:104744000000000000000000000000000000000065
:1047540000000000000000000000C023303C1838B6
:1047640018300C300C300C300C300C300C3008305D
:104774001838303CE033003000300030003000FCAA
:104784000000000000000000000000000000000025
:10479400000000000000000060007E3C6066606174
:1047A400E000E00060006000600060006000600005
:1047B40060006000FE070000000000000000000030
:1047C40000000000000000000000000000000000E5
:1047D40000000000000000000000E027303818301E
:1047E400182018007000E003800F001C043004300F
:1047F4000C301C18EC0F000000000000000000004A
:1048040000000000000000000000000000000000A4
:10481400800080008000C000E000FC1FC000C000D9
:10482400C000C000C000C000C000C000C000C02064
:10483400C0208011000F00000000000000000000F4
:104844000000000000000000000000000000000064
:10485400000000000000000010201E3C183018303A
:104864001830183018301830183018301830183004
:10487400183830F4E01300000000000000000000CD
:104884000000000000000000000000000000000024
:10489400000000000000000000007E3C181818080A
:1048A400380830043004700260026002E001C00184
:1048B400C001C000800000000000000000000000F3
:1048C40000000000000000000000000000000000E4
:1048D40000000000000000000000DFF78E630C23DE
:1048E4008C238C239813981358165816700E700E38
:1048F400700E2004200400000000000000000000EE
:1049040000000000000000000000000000000000A3
:1049140000000000000000000000FC3E700870046D
:10492400E004C002C0018003800340076006200C3D
:10493400100C18183E7E000000000000000000006B
:104944000000000000000000000000000000000063
:10495400000000000000000000007E7C1818180809
:1049640030083008300460046004C002C002C00291
:104974008001800180018000800080004C003C00A8
:104984000000000000000000000000000000000023
:1049940000000000000000000000FC1F0C0C040ECE
:1049A4000406000380038001C000E0007020302072
:1049B40038301C18FC1F000000000000000000003C
:1049C400000000000000003000080004000400049F
:1049D40000040004000400040004000400040002B5
:1049E4008001000200040004000400040004000428
:1049F4000004000400040004000400080030000067
:104A0400000100010001000100010001000100019A
:104A1400000100010001000100010001000100018A
:104A2400000100010001000100010001000100017A
:104A3400000100010001000100010001000100016A
:104A44000000000000000C001000200020002000E6
:104A54002000200020002000200020002000400032
:104A640080014000200020002000200020002000C1
:104A74002000200020002000200010000C00000076
:104A840000003800C400864002610022001C0000BF
:104A94000000000000000000000000000000000012
:104AA4000000000000000000000000000000000002
:104AB40000000000000000000000000000000000F2
:104AC40002030405060708090A0B0C0D0E0F10104B
:084AD4000102000010000020A7
:084ADC00AD15000809020008F5
:044AE400E5010008E0
:104AE8000024F40001000000100000000000000095
:104AF80000000000FC02002064030020CC0300201A
:104B0800000000000000000000000000000000009D
:104B1800000000000000000000000000000000008D
:104B2800000000000000000000000000000000007D
:104B3800000000000000000000000000000000006D
:104B4800000000000000000000000000000000005D
:104B5800000000000000000000000000000000004D
:104B6800000000000000000000000000000000003D
:104B7800000000000000000000000000000000002D
:104B8800000000000000000000000000000000001D
:104B9800000000000000000001000000000000000C
:104BA8000E33CDAB34126DE6ECDE05000B000000D1
:104BB80000000000000000000000000000000000ED
:104BC80000000000000000000000000000000000DD
:104BD80000000000000000000000000000000000CD
:104BE80000000000000000000000000000000000BD
:0C4F18000000000000000000A4040020C5
:04000005080004A14A
:00000001FF
